:020000040800F2
:1000000000000320113300087D2200088B22000825
:1000100091220008972200089D220008000000009D
:10002000000000000000000000000000A322000803
:10003000B122000800000000BF220008CD22000805
:10004000653300086533000865330008792300082C
:100050006533000865330008D922000865330008BD
:100060006533000865330008E7220008653300089F
:100070006533000865330008F52200086533000881
:1000800065330008653300086533000865330008F0
:1000900065330008653300086533000865330008E0
:1000A00065330008653300086533000865330008D0
:1000B00065330008653300086533000865330008C0
:1000C00065330008653300086533000865330008B0
:1000D000092300081D230008653300086533000864
:1000E00065330008653300086533000831230008D4
:1000F0003F2300084B2300085723000865330008FE
:10010000653300086533000865330008653300086F
:10011000653300086533000865330008653300085F
:10012000653300086533000865230008653300085F
:0C013000653300086533000865330008E3
:1001400010B5054C237833B9044B13B10448AFF311
:1001500000800123237010BDA002002000000000D9
:10016000CCAD000808B5034B1BB103490348AFF3FE
:10017000008008BD00000000A4020020CCAD0008F3
:10018000034613F8012B002AFBD1181A01387047D7
:1001900010F8012B11F8013B012A28BF9A42F7D031
:1001A000D01A7047000000000000000000000000AE
:1001B00001F0FF01102A2BDB10F0070F08D010F818
:1001C000013B013A8B422DD010F0070F42B3F6D11C
:1001D000F0B441EA012141EA014122F007047FF035
:1001E00000070023F0E80256083C85EA010586EA8C
:1001F000010685FA47F5A3FA87F586FA47F6A5FAC8
:1002000087F68EB9EED1F0BC01F0FF0102F00702D3
:1002100032B110F8013B013A83EA010313B1F8D17E
:100220000020704701387047002D06BF354603385F
:10023000073815F0010F07D1013015F4807F02BF98
:10024000013015F4C03F0130F0BC0138704700BFE9
:1002500080B485B000AF78604FF0B043DA6C4FF0F7
:10026000B0417B681343CB644FF0B043DA6C7B68DA
:100270001340FB60FB6800BF1437BD465DF8047B8C
:10028000704780B483B000AF78604FF0B043DA6C51
:100290007B68DB434FF0B0411340CB6400BF0C37A9
:1002A000BD465DF8047B704780B485B000AF7860D0
:1002B0004FF0B043D3F84C214FF0B0417B6813436B
:1002C000C1F84C314FF0B043D3F84C217B68134058
:1002D000FB60FB6800BF1437BD465DF8047B7047C8
:1002E00080B586B000AF3B1D00221A605A609A604C
:1002F000DA601A610023FB600323BB604FF46043A4
:100300007B600120FFF7A4FF3B1D19464FF0904092
:1003100003F08CFD0120FFF7B4FF18237B6002205F
:10032000FFF796FF3B1D1946094803F07FFD0220A9
:10033000FFF7A7FF03F062FA03F066FA03F06AFA28
:1003400000F024F800F0C6F800BF1837BD4680BDA5
:1003500000040048B0B588B000AF0B4B3C1D1D46F3
:100360000FCD0FC495E8070003C422800234130C9C
:10037000237008F0C9FE3B1D184608F0ECF900BFD9
:100380002037BD46B0BD00BFE4AD000880B588B0E1
:1003900000AF3B1D00221A605A609A60DA601A6151
:1003A0000023BB8300237B8300233B830023FB7755
:1003B00038E0FB7F444ADB0013449B79002B2BD0B1
:1003C000FB7F414A52F83330404A93421BD03F4AA8
:1003D000934223D8B3F1904F03D03D4A934209D0C2
:1003E0001CE0FB7F384ADB0013449A88BB8B134325
:1003F000BB8314E0FB7F344ADB0013449A887B8B79
:1004000013437B830BE0FB7F2F4ADB0013449A8866
:100410003B8B13433B8302E000BF00E000BFFB7F48
:100420000133FB77FB7F212BC3D90023FB60012322
:10043000BB6003233B61BB8B002B14D0BB8B7B6069
:100440000120FFF705FF0120FFF72EFF3B1D194696
:100450004FF0904003F0EAFCBB8B002219464FF0AE
:10046000904003F053FE7B8B002B12D07B8B7B6084
:100470000220FFF7EDFE0220FFF716FF3B1D194695
:10048000134803F0D3FC7B8B00221946104803F07D
:100490003DFE3B8B002B13D03B8B7B600420FFF792
:1004A000D7FE0420FFF700FF3B1D1946074803F065
:1004B000BDFC3B8B00221946044803F027FE00BF19
:1004C00000BF2037BD4680BD70AE00080008004860
:1004D0000004004880B400AF00BFBD465DF8047B57
:1004E0007047000080B483B000AF7860074BD3F84A
:1004F000803023F0070205497B681343C1F8803040
:1005000000BF0C37BD465DF8047B704700040058FF
:1005100080B483B000AF78604FF0B0439B6823F4A1
:1005200000424FF0B0417B6813438B6000BF0C3733
:10053000BD465DF8047B704780B500AF00F014F84D
:100540000849002000F038FDFFF7CAFE0121012014
:1005500008F078FE00F067F800F075F800F012F887
:1005600000BF80BD3006002080B500AF4FF40040D2
:10057000FFF7CEFF08F054FE0420FFF7B3FF00BFE3
:1005800080BD000080B588B000AF08F007FC114ABC
:100590000021202008F0A0FF0F4B3B600F4B7B6039
:1005A0003B4619460E4808F0EDF80E4BBB600E4B6B
:1005B000FB600E4B3B6140F23C537B6107F108034B
:1005C000184608F02DFD08F0E3FB00BF2037BD46BC
:1005D00080BD00BFBD87000824070320F105000887
:1005E000070600083C09032030080320E801032027
:1005F00080B483B000AF0346FB7100BF0C37BD462B
:100600005DF8047B704780B582B000AF7860FFF77B
:10061000A1FE01F011FF0021012008F013FE00BF30
:100620000837BD4680BD80B500AF002002F0B4FEA3
:10063000012002F0B1FE022002F0AEFE012002F025
:10064000E5FE00BF80BD80B500AF0121002002F0B3
:100650002BFF0121012002F027FF00BF80BD80B5E4
:1006600000AF08F01FFE00BF80BD80B582B000AFB4
:10067000786039604FF0FF3008F04AFE00BF08375D
:10068000BD4680BD80B582B000AF786000212020DB
:1006900008F044FF00BF0837BD4680BD80B582B07A
:1006A00000AF7860022008F0A5FF00BF0837BD4604
:1006B00080BD80B582B000AF7860022008F0BAFF3C
:1006C00000BF0837BD4680BD80B582B000AF03468D
:1006D000FB80FB88012B35D102F01EF8002002F0D0
:1006E000C9FE00221A491B4805F01EFE00221A49C5
:1006F000184805F023FF184BDB786433174A536121
:10070000154B9B781A46154BDA60134B5B78013B0F
:10071000124A13610E4B1B781A46104B9A600C4B11
:100720005B781A460D4B5A60094B9B781A460B4B67
:100730001A600A4809F020F902460B460849C1E947
:10074000002300E000BF00BF0837BD4680BD00BFEA
:100750002C04002030060020280400204004002043
:100760002004002080B483B000AF7860064BD3F83B
:10077000802005497B681343C1F8803000BF0C37E7
:10078000BD465DF8047B70470008005880B483B014
:1007900000AF7860054B1A6804497B6813430B600F
:1007A00000BF0C37BD465DF8047B70470008005859
:1007B00080B483B000AF0D4B9B6A9BB27B600B4B48
:1007C0009B6A9BB23B6005E03B687B60074B9B6A82
:1007D0009BB23B607A683B689A42F5D13B68184609
:1007E0000C37BD465DF8047B704700BF0028004011
:1007F00080B485B000AF03460A46FB711346BB7157
:10080000BA791D4913465B001344DB000B441533D2
:100810001B78FB73FB7B062B09D0FA7B164913462A
:100820005B001344DB000B441433FA791A70FA7935
:10083000114913465B001344DB000B441533FA7B6C
:100840001A70FA790C4913465B001344DB000B4421
:100850001433BA791A70BA79074913465B00134406
:10086000DB000B441533FA791A7000BF1437BD460C
:100870005DF8047B704700BF1801002080B485B08C
:1008800000AF03460A46FB711346BB71294B1B7828
:10089000DBB2BA799A4232D0BA79274913465B0063
:1008A0001344DB000B4414331B78FB73FA7B22499F
:1008B00013465B001344DB000B441533FA791A70BE
:1008C000FA791D4913465B001344DB000B441533D2
:1008D000BA791A70FA79184913465B001344DB00A1
:1008E0000B441433FA7B1A70BA79134913465B0030
:1008F0001344DB000B441433FA791A7014E0FA79CC
:100900000D4913465B001344DB000B441533BA79E1
:100910001A70BA79084913465B001344DB000B4494
:100920001433FA791A7000BF1437BD465DF8047BA2
:10093000704700BFA80100201801002080B584B0D6
:1009400000AF0346FB714E4B1B78DBB2062B18D170
:100950004B4B1B78DAB24B4B1A70494AFB79137038
:10096000FA79494913465B001344DB000B44153305
:1009700006221A70454B4FF0FF321A600023FB81AC
:1009800078E000F009F90346FB81FA793E49134605
:100990005B001344DB000B4408331968FB89FA79C8
:1009A0001944394813465B001344DB000344083301
:1009B0001960FA79344913465B001344DB000B4499
:1009C00008331B68BB602E4B1B78DBB219462E4ADE
:1009D0000B465B000B44DB00134408331B68BA680A
:1009E0009A4237D3264B1B787B737A7B2649134672
:1009F0005B001344DB000B4415331B783B7313E09F
:100A00007A7B214913465B001344DB000B4415330A
:100A10001B787B737A7B1C4913465B001344DB0015
:100A20000B4415331B783B733B7B062B0BD03A7B77
:100A3000154913465B001344DB000B4408331B6865
:100A4000BA689A42DCD27A7BFB7911461846FFF7E6
:100A5000CFFE0FE00A4B1B78DAB2FB79114618463D
:100A6000FFF70CFF064B1B78DAB2064B1A70044AEC
:100A7000FB791370FB8918461037BD4680BD00BF57
:100A8000A8010020A901002018010020AC010020CD
:100A900080B485B000AF03460A46FB711346BB71B4
:100AA000394B1B78DBB2FA799A4211D1364B1B785D
:100AB000DAB2364B1A70FA79354913465B001344A3
:100AC000DB000B4415331B78DAB22F4B1A703EE073
:100AD000FA792F4913465B001344DB000B441433AF
:100AE0001B78FB73FA792A4913465B001344DB0039
:100AF0000B4415331B78BB73F979FA7B24480B46FA
:100B00005B000B44DB00034415331B78D8B220494B
:100B100013465B001344DB000B44153302461A7086
:100B2000BB7B062B13D0F979BA7B19480B465B00C7
:100B30000B44DB00034414331B78D8B2144913462A
:100B40005B001344DB000B44143302461A70FA793D
:100B50000F4913465B001344DB000B440C330122A6
:100B60001A70094B1B78DBB2062B07D1BB79002B1F
:100B700004D1084B4FF0FF321A6000BF00BF14379A
:100B8000BD465DF8047B7047A8010020A901002044
:100B900018010020AC01002080B582B000AF1A4BD4
:100BA0001B68B3F1FF3F26D0FFF702FE7860164BBB
:100BB0001B687A689A4205D8134B1A687B68D31A67
:100BC0007B600AE0114B1B881A467B68D31A3B6096
:100BD0000D4B1B683A6813447B600D4B1B781A461B
:100BE0007B6802FB03F37B600A4B1B781A467B6829
:100BF000D3407B6001E000237B607B689BB218469A
:100C00000837BD4680BD00BFAC010020C2020020F5
:100C1000C1020020C002002080B582B000AF0346B0
:100C2000FB80FB88002B08D1FFF7C2FD0346244A56
:100C30001360032002F071FF3EE0FB88012B03D814
:100C4000204B1B78012B02D0FB88013BFB8000BFAF
:100C50001D4B1B681B68DB6803F00403002BF7D0F7
:100C6000194B1B681B68DB68DAB2174B1B681B68E3
:100C700062F49062DA60154B4FF40022DA600320D0
:100C800002F059FF124B5B691B0C1B04FA881049D8
:100C900013434B61FFF78CFD0346094A13600A4B6F
:100CA0001B681B689A68084B1B681B6842F48062CB
:100CB0009A60AFF3008000BF0837BD4680BD00BF1B
:100CC000AC010020C0020020BC0200200008005837
:100CD0000028004080B584B000AF474B9B6803F408
:100CE0008063B3F5806F08D100BF444B1B681B685D
:100CF000DB6803F00403002BF7D1404B1B681B6833
:100D00009A683E4B1B681B6822F480629A603C4BD9
:100D10001B78FB73FA7B3B4913465B001344DB00F3
:100D20000B4408331B68BB60FFF736FF0346FB80AC
:100D3000FB88BA689A4205D20023BB81324B01225C
:100D40001A704DE0FB88314A128892B213441A4659
:100D5000BB68934206D92D4B1B88BB812A4B0022CE
:100D60001A703DE0BB689AB2FB88D31ABB81264B50
:100D700001221A7034E0FA7B224913465B001344C7
:100D8000DB000B4408331A68FB889A420AD2FA7BCC
:100D90001C4913465B001344DB000B44083300225C
:100DA0001A6013E0FA7B174913465B001344DB001B
:100DB0000B4408331968FB88FA7BC91A114813469B
:100DC0005B001344DB00034408331960FA7B0D49D0
:100DD00013465B001344DB000B4415331B78FB7395
:100DE000FB7B062BC7D1BB891846FFF715FF00BF59
:100DF0001037BD4680BD00BF00280040BC02002067
:100E0000A801002018010020B0010020C402002029
:100E100080B58AB000AFEFF310837B617B697B62A2
:100E200072B600BF5F4B1B681B68CA225A625D4BDB
:100E30001B681B6853225A625A4B1B681B689A68CE
:100E4000584B1B681B6822F480629A60564B1B78D3
:100E500087F8233097F82320544913465B00134446
:100E6000DB000B440C331B78DBB2022B72D197F8FA
:100E700023204E4913465B001344DB000B441B68E0
:100E8000FB6197F82320494913465B001344DB00BC
:100E90000B4410331B68BB61454B1B78DBB2002B46
:100EA00050D097F82320414913465B001344DB00E0
:100EB0000B440D331B78DBB2012B26D197F823307E
:100EC00001211846FFF7E4FD7B6A3B613B6983F330
:100ED000108800BF97F82320344913465B00134461
:100EE000DB000B4404331A6897F823301146184688
:100EF00000F04EFA2B4B1B681B68CA225A62294B22
:100F00001B681B6853225A6214E07B6AFB60FB6813
:100F100083F3108800BF97F82330184600F0ACF92F
:100F2000204B1B681B68CA225A621E4B1B681B6839
:100F300053225A6297F82330FA691946B86900F0CB
:100F4000AFFA25E0FFF7C6FE7B6ABB60BB6883F3A0
:100F500010881DE000BF134B1B681B68DB6803F0A3
:100F60000403002BF7D00F4B1B681B68DB68DAB259
:100F70000C4B1B681B6862F49062DA600D4B4FF4F7
:100F80000022DA607B6A7B607B6883F3108800BF95
:100F9000044B1B681B68FF225A6200BF2837BD46FE
:100FA00080BD00BFBC020020A80100201801002065
:100FB000B00100200008005880B588B000AF03469B
:100FC0003960FB71644A3B681360634B1B681B68A4
:100FD000CA225A62604B1B681B6853225A625F4BDD
:100FE0009B685E4A43F0200393605C4B9B68DBB2D6
:100FF00003F00703DBB2C3F10403DAB2584B1A70F3
:10100000564B1B6903F4FE034FF4FE023A613A6942
:1010100092FAA2F2FA60FA687A617A69002A01D13A
:10102000202203E07A69B2FA82F2D2B2D340DBB274
:101030000133DAB24B4B1A70484B1B699BB2C3F3B6
:101040000E039BB201339AB2474B1A80464B1B8862
:10105000013B444A127802FB03F3A3F5A073404A14
:101060001278D340BB61BB694FF6FE72934204D93C
:101070003E4B4FF6FF721A8003E0BB699AB23B4BBE
:101080001A804FF40020FFF781FB4FF40020FFF798
:1010900069FBFB79002B43D1354B01221A70354B8C
:1010A0004FF0FF321A600023FB770CE0FA7F3249E1
:1010B00013465B001344DB000B440C3300221A7010
:1010C000FB7F0133FB77FB7F052BEFD92B4B0622F0
:1010D0001A70214B1B681B689A681F4B1B681B68A2
:1010E00022F480629A601C4B1B681B68DB68DAB2D2
:1010F000194B1B681B6862F49062DA60204B4FF456
:101100000022DA60032002F016FD134B1B681B68F7
:101110009A68114B1B681B6842F480429A600AE08F
:101120000D4B1B681B68DB6803F48063002B02D047
:10113000032002F0F2FC084B1B681B68FF225A6276
:1011400000220321032002F0A6FC032002F0BDFCD4
:1011500000BF2037BD4680BDBC02002000280040F3
:10116000C0020020C1020020C2020020C4020020F0
:10117000B0010020AC01002018010020A8010020CF
:101180000008005880B48BB000AFF860B9603B60D5
:101190001346FB71002387F82630EFF31083FB61C1
:1011A000FB693B6272B600BF04E097F8263001335A
:1011B00087F8263097F82630052B0CD897F826208C
:1011C0002C4913465B001344DB000B440C331B78A3
:1011D000DBB2002BE9D197F82630062B38D097F8F0
:1011E0002620244913465B001344DB000B440C33D8
:1011F00001221A703B6ABB61BB6983F3108800BF90
:1012000097F826201B4913465B001344DB000B4470
:101210001033FA681A6097F82620164913465B00C7
:101220001344DB000B440D33FA791A7097F826202B
:10123000104913465B001344DB000B443A681A6004
:10124000BB6897F826201A70002387F8273008E03B
:101250003B6A7B617B6983F3108800BF012387F8B9
:10126000273097F8273018462C37BD465DF8047BA9
:10127000704700BF1801002080B586B000AF03465C
:10128000FB71EFF31083FB60FB687B6172B600BFFC
:10129000032002F028FC384B1B681B68CA225A62E4
:1012A000354B1B681B6853225A62FA79334913463F
:1012B0005B001344DB000B440C331B78DBB2022BC6
:1012C00048D1FB7900211846FFF7E2FB2C4B1B7835
:1012D000FB74FB7C062B35D12A4B9B6803F480639F
:1012E000B3F5806F08D100BF234B1B681B68DB6818
:1012F00003F00403002BF7D11F4B1B681B689A688F
:101300001D4B1B681B6822F480629A6000BF1A4B59
:101310001B681B68DB6803F00403002BF7D0164B37
:101320001B681B68DB68DAB2134B1B681B6862F42E
:101330009062DA60144B4FF40022DA60032002F06E
:10134000FAFB07E0114B1B78DBB2FA7C9A4201D022
:10135000FFF7C0FC084B1B681B68FF225A62032082
:1013600002F0B3FB7B69BB60BB6883F3108800BFEE
:1013700000BF1837BD4680BDBC0200201801002008
:10138000A80100200028004000080058A901002002
:1013900080B586B000AF03463960FB71FA793C49ED
:1013A00013465B001344DB000B440C331B78DBB2A9
:1013B000022B03D1FB791846FFF75EFFEFF3108392
:1013C000FB60FB687B6172B600BF032002F08BFB01
:1013D000304B1B681B68CA225A622E4B1B681B6865
:1013E00053225A62FA792A4913465B001344DB0000
:1013F0000B440C3302221A70FA79254913465B001C
:101400001344DB000B4408333A681A60FA79204928
:1014100013465B001344DB000B4404333A681A6044
:10142000FB791846FFF78AFA03467B821A4B1B7832
:101430007B741A4B1B78DBB27A7C9A4202D0FFF79E
:1014400049FC13E0FA79124913465B001344DB00B0
:101450000B44083319687B8AFA79C91A0C48134679
:101460005B001344DB00034408331960094B1B681D
:101470001B68FF225A62032002F027FB7B69BB60D6
:10148000BB6883F3108800BF00BF1837BD4680BD1E
:1014900018010020BC020020A8010020A9010020A2
:1014A00080B584B000AFF8600B467A60FB727B6851
:1014B000984700BF1037BD4680BD000080B582B0A0
:1014C00000AF78607B681B680F4A93420AD00F4ACE
:1014D00093420FD10E4B1B68002B0DD00C4B1B6899
:1014E000984709E00B4B1B68002B07D0094B1B6882
:1014F000984703E000BF02E000BF00E000BF00BF6C
:101500000837BD4680BD00BF008000400038014064
:10151000700400206404002080B400AF054BDB6938
:10152000044A43F40043D36100BFBD465DF8047B29
:10153000704700BF0004005880B483B000AF7860EB
:10154000064BDB6923F0700204497B681343CB61CF
:1015500000BF0C37BD465DF8047B7047000400589F
:1015600080B487B000AF7860184B1B681B0A03F08B
:101570000F03FB60FB68002B08D1154BDB6923F0E0
:101580000F0213497B681343CB6119E0FB68063BEC
:101590003B617B683A6913447B617B69002B02DA0B
:1015A00000237B6104E07B690F2B01DD0F237B614E
:1015B000074BDB6923F00F027B6905491343CB61BD
:1015C00000BF1C37BD465DF8047B70475875FF1F90
:1015D0000004005880B483B000AF7860074BD3F8A4
:1015E00080207B68DB4305491340C1F8803000BF91
:1015F0000C37BD465DF8047B704700BF00080058FB
:1016000080B483B000AF7860074BD3F890207B683C
:10161000DB4305491340C1F8903000BF0C37BD468D
:101620005DF8047B704700BF0008005880B483B0A9
:1016300000AF78604FF0B0430A4AC3F89C204FF0E7
:10164000B043D3F89C3023F47C527B681B024FF0EC
:10165000B0411343C1F89C3000BF0C37BD465DF864
:10166000047B7047FECAFECA80B483B000AF7860C6
:101670004FF0B043D3F8903023F018024FF0B04150
:101680007B681343C1F8903000BF0C37BD465DF84E
:10169000047B704780B400AF4FF0B043D3F8943070
:1016A0004FF0B04243F40003C2F8943000BFBD468F
:1016B0005DF8047B704780B485B000AF78604FF070
:1016C000B0439A6C4FF0B0417B6813438B644FF08A
:1016D000B0439A6C7B681340FB60FB6800BF143713
:1016E000BD465DF8047B704780B485B000AF78607C
:1016F0004FF0B043DA6C4FF0B0417B681343CB64DA
:101700004FF0B043DA6C7B681340FB60FB6800BFAE
:101710001437BD465DF8047B7047000080B400AF0D
:10172000054B1B69044A23F00403136100BFBD4647
:101730005DF8047B704700BF00ED00E080B483B02B
:1017400000AF78607B68FF225A6200BF0C37BD464D
:101750005DF8047B704780B483B000AF78607B682D
:10176000CA225A627B6853225A6200BF0C37BD46B8
:101770005DF8047B704780B483B000AF7860396057
:101780007B689B6823F007023B681A437B689A607A
:1017900000BF0C37BD465DF8047B704780B500AFD5
:1017A000144B4FF400421A6101F076FF00F031FA59
:1017B00000F01BFA00F020F800F0A6F800F00EFA96
:1017C00000F02EFA00F0ACF900F08CF900F0B0F85F
:1017D00000F0B6F800F048F9002001F0DDFD02202D
:1017E00001F0DAFDFEF7A8FE4FF0FF3007F090FDA4
:1017F000FAE700BF0040005880B5AEB000AF07F177
:10180000700348220021184607F0D6FF07F1540361
:1018100000221A605A609A60DA601A615A619A610D
:101820003B1D50220021184607F0C6FF02F0EEFDD6
:101830000020FFF719FF334B1B6823F4C063314AC4
:1018400043F4007313602F4B1B6803F4C0633B60C9
:101850003B6807233B674FF480337B670123BB67FB
:101860004FF48073FB674023C7F880300023C7F82C
:101870009C3007F17003184603F096F90346002BDD
:1018800001D000F0FEF96F237B650223BB650023C6
:10189000FB6500233B6600237B660023BB660023B9
:1018A000FB6607F154030121184603F009FD0346C6
:1018B000002B01D000F0E5F943F603037B60002321
:1018C000FB6100233B624FF480737B644FF48043E1
:1018D000BB640223FB6410233B653B1D184604F0E8
:1018E00004F90346002B01D000F0CBF90020FFF7EC
:1018F00023FE0420FFF734FEFFF70EFE00BFB837CB
:10190000BD4680BD0004005880B500AF064B074AB5
:101910001A60054802F068FC0346002B01D000F075
:10192000B0F900BF80BD00BF74040020000C005857
:1019300080B400AF00BFBD465DF8047B7047000077
:1019400080B586B000AF3B1D00221A605A609A60D5
:10195000DA601A6100233B60414B424A1A60404BF7
:1019600000225A603E4BFF229A603D4B7F22DA6094
:101970003B4B00221A613A4B00229A61384B0022FD
:10198000DA61374B00225A61354804F035FB0346D3
:10199000002B01D000F075F90021314804F096FFCA
:1019A000034643F2F22293423AD011233B7145237E
:1019B0007B712523BB710023BB6000233B610023A7
:1019C0007B613B1D01221946254804F0E9FB0346D3
:1019D000002B01D000F055F903233B7005237B70E9
:1019E0001923BB702123FB703B46012219461C487A
:1019F00004F0F6FC0346002B01D000F042F900226F
:101A00000021174804F0A5FE0346002B01D000F08A
:101A100038F943F2F2220021114804F03FFF0EE0B2
:101A20004FF0B043D3F894304FF0B043D3F8943034
:101A300003F08063002B02D0022001F0E7FCFFF7E7
:101A400029FE0848FFF787FE00210648FFF793FEAE
:101A50000448FFF773FE00BF1837BD4680BD00BFC6
:101A6000300600200028004080B500AF1B4B1C4A08
:101A70001A601A4B4FF482725A60184B00229A6017
:101A8000164B4FF4E062DA60144B00221A61134BDC
:101A900000225A61114B4FF480229A610F4B0022B1
:101AA000DA610E4B00221A620C4B00225A620B4B79
:101AB00000229A62094B0722DA62084B00221A635D
:101AC000064B08225A63054804F056FF0346002BD4
:101AD00001D000F0D6F800BF80BD00BFD8060020BE
:101AE0000030014080B500AF0420FFF7E4FD012085
:101AF000FFF7E1FD0220FFF7DEFD00220F210E209F
:101B000001F0C9FF0E2001F0E0FF00220F213A2072
:101B100001F0C1FF3A2001F0D8FF00BF80BD0000F6
:101B200080B586B000AF3B1D00221A605A609A60F3
:101B3000DA601A610420FFF7D7FD0120FFF7D4FD1A
:101B40000220FFF7D1FD0820FFF7CEFD002247F26B
:101B500023011E4802F0DAFA41F210037B601C4BAD
:101B6000BB600123FB603B1D19461A4802F05EF979
:101B700047F223037B600123BB600023FB6000234B
:101B80003B613B1D1946114802F050F901237B606F
:101B90000F4BBB600123FB603B1D19460E4802F052
:101BA00045F900220021062001F075FF062001F012
:101BB0008CFF002200210A2001F06DFF0A2001F0B5
:101BC00084FF00BF1837BD4680BD00BF0004004839
:101BD0000000111000080048000C004880B400AF5D
:101BE00000BFBD465DF8047B704780B582B000AF92
:101BF000002006F04BFC78607B68002B05D07B68EA
:101C00009B791846FFF712FD00BF00BF0837BD469D
:101C100080BD80B400AF00BFBD465DF8047B704757
:101C200080B500AF4FF0FF30FFF7D4FC6FF05000ED
:101C3000FFF7E6FC00BF80BD80B584B000AF7860E0
:101C400001F098FDB8607B68FB60FB68B3F1FF3F73
:101C50000AD001F0A7FD03461A46FB681344FB6057
:101C600002E0FFF75BFD30BF01F084FD0246BB6878
:101C7000D31AFA689A42F4D800BF00BF1037BD46A5
:101C800080BD80B400AF00BFBD465DF8047B7047E7
:101C900080B483B000AF7860064B1B6823F0070266
:101CA00004497B6813430B6000BF0C37BD465DF8E9
:101CB000047B70470004005880B400AF034B1F2220
:101CC0009A6100BFBD465DF8047B70470004005870
:101CD00080B400AF074BD3F8883003F40043B3F56A
:101CE000004F01D1012300E000231846BD465DF8F6
:101CF000047B70470004005880B400AF4FF0B0433D
:101D00001B684FF0B04243F48033136000BFBD4600
:101D10005DF8047B704780B400AF4FF0B0431B68A0
:101D200003F40033B3F5003F01D1012300E00023A9
:101D30001846BD465DF8047B704780B400AF4FF095
:101D4000B0431B684FF0B04243F48073136000BF90
:101D5000BD465DF8047B704780B400AF4FF0B043E0
:101D60001B6803F48063B3F5806F01D1012300E0A9
:101D700000231846BD465DF8047B704780B483B0ED
:101D800000AF78604FF0B0439B6823F003024FF040
:101D9000B0417B6813438B6000BF0C37BD465DF8D4
:101DA000047B704780B400AF4FF0B0439B6803F0F2
:101DB0000C031846BD465DF8047B704780B483B0C1
:101DC00000AF78604FF0B0435B6A23F003024FF03E
:101DD000B0417B6813434B6200BF0C37BD465DF8D2
:101DE000047B704780B400AF054B1B69044A23F0A5
:101DF0000403136100BFBD465DF8047B704700BF5C
:101E000000ED00E080B400AF054B1B69044A43F0CD
:101E10000403136100BFBD465DF8047B704700BF3B
:101E200000ED00E080B483B000AF786039607B687B
:101E30003A68203253F82230054A934201D00123F8
:101E400000E0002318460C37BD465DF8047B704760
:101E50000004008080B485B000AFF860B9607A609B
:101E60007B6843F48061FB68BA6843F8221000BFC6
:101E70001437BD465DF8047B704780B500AF01F0B4
:101E80009DFCFFF719FF0320FFF702FFFFF7BAFFE2
:101E900030BF00BF80BD80B500AF01F09FFC00BF28
:101EA00080BD000080B500AF01F088FC00BF0321B9
:101EB0001448FFF7B7FF0346002BF8D1042111485F
:101EC000FFF7B0FF0346002B0CD1FFF701FF0346DD
:101ED000002B09D0002204210A48FFF7BBFF00F0C5
:101EE00052F801E000F04FF8002203210548FFF707
:101EF000B1FF0220FFF7CCFEFFF784FF30BF00BF29
:101F000080BD00BF0014005880B500AF002204213E
:101F10001448FFF79FFF00BF03211248FFF782FF1D
:101F20000346002BF8D1FFF73DFF0346042B10D1E9
:101F3000FFF7E2FE00BFFFF7EEFE0346002BFAD0EC
:101F40000220FFF71BFF00BFFFF72CFF0346082B03
:101F5000FAD1002203210348FFF77CFF01F03EFC89
:101F600000BF80BD0014005880B500AF01F026FC12
:101F7000FFF738FF30BF00BF80BD80B500AF01F074
:101F80002DFC00BF80BD80B500AFFFF7D6FE00BFBF
:101F9000FFF7E2FE0346002BFAD00120FFF7EEFE2A
:101FA0000020FFF70BFF00BFFFF7FCFE0346042BEA
:101FB000FAD100BF00BF80BD80B483B000AF7860AD
:101FC0004FF0B043D3F8903023F440724FF0B0415B
:101FD0007B681343C1F8903000BF0C37BD465DF8F5
:101FE000047B704780B400AF4FF0B043D3F890301B
:101FF0004FF0B04243F40043C2F8903000BFBD46FA
:102000005DF8047B704780B400AF4FF0B043D3F865
:1020100090304FF0B04223F40043C2F8903000BF3C
:10202000BD465DF8047B704780B485B000AF786032
:102030004FF0B043DA6C4FF0B0417B681343CB6490
:102040004FF0B043DA6C7B681340FB60FB6800BF65
:102050001437BD465DF8047B704780B485B000AF8F
:1020600078604FF0B0431A6D4FF0B0417B68134376
:102070000B654FF0B0431A6D7B681340FB60FB6843
:1020800000BF1437BD465DF8047B704780B485B04F
:1020900000AF78604FF0B0439A6D4FF0B0417B686D
:1020A00013438B654FF0B0439A6D7B681340FB6020
:1020B000FB6800BF1437BD465DF8047B704780B4F1
:1020C00083B000AF78604FF0B0439A6D7B68DB431C
:1020D0004FF0B04113408B6500BF0C37BD465DF833
:1020E000047B704780B485B000AF78604FF0B04398
:1020F0001A6E4FF0B0417B6813430B664FF0B0434C
:102100001A6E7B681340FB60FB6800BF1437BD4646
:102110005DF8047B704780B582B000AF3B4600227B
:102120001A605A604FF40020FFF797FF0022002149
:102130002B2001F0B0FC2B2001F0C7FC0022002175
:102140002E2001F0A8FC2E2001F0BFFC00233B60F4
:1021500000237B603B46184602F068F902F0A8F9BC
:1021600000BF0837BD4680BD80B582B000AF786043
:102170007B681B680D4A934213D14FF48010FFF720
:102180006CFF002200212C2001F085FC2C2001F0A6
:102190009CFC002200212D2001F07DFC2D2001F06F
:1021A00094FC00BF0837BD4680BD00BF000C00583E
:1021B00080B582B000AF78607B681B680B4A9342A1
:1021C00010D102F023F902F021F94FF48070FFF7EB
:1021D000F3FEFFF707FF4FF48060FFF757FF7868C3
:1021E00004F08AFB00BF0837BD4680BD00280040D0
:1021F00080B582B000AF78607B681B68064A934266
:1022000005D1FFF700FF4FF48060FFF758FF00BFD4
:102210000837BD4680BD00BF0028004080B588B0AB
:1022200000AF786007F10C0300221A605A609A60D0
:10223000DA601A617B681B680F4A934217D14FF42A
:102240008050FFF74FFF0120FFF7EEFEF023FB6009
:1022500002233B6100237B610023BB610523FB61FB
:1022600007F10C0319464FF0904001F0DFFD00BF6D
:102270002037BD4680BD00BF0030014080B400AFB4
:1022800000BFBD465DF8047B704780B400AFFEE739
:1022900080B400AFFEE780B400AFFEE780B400AFCB
:1022A000FEE780B400AF00BFBD465DF8047B704719
:1022B00080B400AF00BFBD465DF8047B704780B4BA
:1022C00000AF00BFBD465DF8047B704780B500AF2E
:1022D00001F03CFA00BF80BD80B500AF012001F0E5
:1022E00047FF00BF80BD80B500AF102001F040FF68
:1022F00000BF80BD80B500AF024801F0E8FC00BF20
:1023000080BD00BF7806002080B500AF024804F011
:10231000D7FB00BF80BD00BFA005002080B500AF87
:10232000024804F0CDFB00BF80BD00BFB004002018
:1023300080B400AF00BFBD465DF8047B704780B538
:1023400000AF00F085FE00BF80BD80B500AF00F09B
:10235000B7FE00BF80BD80B500AF01F021FF00BF18
:1023600080BD000080B500AF024801F0B0FC00BFA6
:1023700080BD00BF4005002080B500AFFEF748FDDE
:1023800000BF80BD80B586B000AF7860144A154BA1
:10239000D31A7B617B693B61134B1B68002B02D115
:1023A000114B124A1A60104B1A687B6813443A6941
:1023B0009A4207D207F0C8F903460C221A604FF080
:1023C000FF3309E0084B1B68FB60074B1A687B680A
:1023D0001344054A1360FB6818461837BD4680BD94
:1023E0000000032000100000CC020020580700204D
:1023F00080B400AF034B1B681846BD465DF8047BF4
:10240000704700BF8075FF1F80B400AF034B1B688F
:10241000DBB21846BD465DF8047B70478475FF1F2C
:1024200080B400AF034B1B681B0A1846BD465DF81D
:10243000047B70478475FF1FB0B58CB000AF2F4B85
:102440003C461D460FCD0FC40FCD0FC495E80F00BD
:1024500084E80F0000F06CF90121022006F0F2FE82
:10246000274A0021082007F037F83B46184606F0B7
:102470005BF90346002B01D0FFF703FC00F06EF977
:1024800006F0E2FB1F4B002283F880201D4B4FF625
:10249000FF72DA821C4A0021012007F01DF81B4A56
:1024A0000021042007F018F8062005F078FC184BEE
:1024B00000221A70174B01221A7000F031FC164BE3
:1024C000002216490020FEF75DFE154B002215493B
:1024D0000020FEF757FE0B4B00225A76094B0022D4
:1024E0001A76114B80221A80104BA0221A800120EC
:1024F00000F0F6F900BF3037BD46B0BD00AE0008B1
:1025000059810008B4010020492A00084D2B000819
:102510004107002040070020812A000835020020E2
:10252000912A000836020020380200203A020020DA
:1025300080B58CB000AF7860422387F82F307B687D
:102540000133BB62BB6A1B78FF2B00F08180FF2B3D
:1025500000F3D480052B02D03E2B20D0CEE0BB6A06
:1025600002333B613B69B3F801309AB2674BDB8AB7
:102570009A4206D1654B0022DA82644B002283F82E
:102580008020012000F0ACF9614B01221A705F4BF2
:10259000DA8A5F4B5A805E4800F0AEFBB1E0BB6A5E
:1025A0000233FB61FB691B780C2B05D00C2B4BDC39
:1025B000012B17D0032B47E0FB690133BB61534B61
:1025C000DB8A07F10E0207F10F01184605F055FCF2
:1025D000034687F82F3097F82F30002B36D1FB7B3E
:1025E000022B33E0FB6901337B61484B93F8813068
:1025F0001846FEF741FE454B93F88030042B04D17A
:10260000424B062283F8802003E0404B052283F8EA
:1026100080207B69B3F801309AB23C4BDA823C4BA4
:1026200000221A70394BDA8A394B5A80384800F048
:1026300063FB374B00221A70344BDA8A344B5A80D2
:10264000334800F059FB02E000BF5AE000BF58E0F9
:10265000BB6A02337B627B6A1B889BB2B3F5006F57
:102660003BD0B3F5006F4BDC042B3AD0042B47DB97
:1026700040F20A42934243DCB3F5806F40DBA3F59E
:1026800080630A2B3CD801A252F823F0F9260008F7
:10269000D3260008F9260008F9260008F9260008C4
:1026A000B926000801270008F9260008F9260008C5
:1026B000C5260008F9260008144BDB8A184604F0EA
:1026C000C8FF1AE0114BDB8A0121184605F00BF810
:1026D00013E07B6A02333B620FE00E4B01221A705B
:1026E0000BE0012000F092FE084B93F882300A21A3
:1026F0001846FEF74DFE00E000BF01E000BF00E01D
:1027000000BF012318463037BD4680BDB40100200C
:102710003C0700204007002080B500AF00211020BA
:1027200006F0FCFE012000F0DBF800BF80BD0000D9
:1027300080B582B000AF064B3B60064B7B603B46EA
:102740001946054805F0ECFC00BF0837BD4680BDC2
:1027500028000320F52B0008BD2B0008F0B58FB032
:1027600006AF00233B8005F064FB00F029F9F86117
:10277000FA690621002005F052FAFB695A79524B9A
:102780001A72FB691A79504B5A72FB69DA784E4B10
:102790009A72FB699A784C4BDA72FB695A784A4B09
:1027A0001A73FB691A78484B5A734EF66E53BB6026
:1027B000FFF71EFE03467B603B1D1A4606212E20B6
:1027C00005F02DFA414A1021182005F028FA404A58
:1027D0001021082005F023FA1821012005F088FABD
:1027E00004F0D8FF0023FB76FB7E43F00103FB7669
:1027F000FB7E002B1ED0374B7B6107F11202F87E67
:1028000007F10E03019307F110030093134607220B
:10281000002104F013FE7C8A3D8A7869FDF7B0FC44
:102820000346DAB27B69009313460022294620460C
:1028300005F06EF9788AF9893B460093022300225D
:1028400005F066F902220221002005F07EFB224BF2
:1028500001221A70204B1B78184604F0FDFC1E4B19
:1028600001225A701C4B08221A711B4B10225A71FC
:10287000194B0022DA70184B184A9A60164B012245
:102880009A70154B9C78144B5D78134B1B79124A48
:1028900052791149C978104880680026049603903F
:1028A000029101920093002301222946204604F060
:1028B0001DFD094B9B78002B01D004F0A6FE00BF44
:1028C0002437BD46F0BD00BF14000020A0AF0008B3
:1028D000B0AF000830AE0008B401002007B201001C
:1028E00080B58CB008AF0346FB714223FB72FB79C5
:1028F000012B06D12B4B1B88FB812B4B1B88BB81EB
:1029000005E04FF4C863FB814FF47A63BB81274B2A
:1029100093F881301846FEF7AFFCFB79022B0DD1FE
:10292000224B93F88030012B04D0204B93F8803059
:10293000022B03D104F08EFB0346FB721B4AFB798A
:1029400082F88030194B1B7EBA89F98900200690E5
:1029500000200590164804900393164B0293082319
:102960000193002300930023002004F097FB03460B
:10297000FB7211490E2004F0ECFD0346FB72FB7A5A
:10298000002B0AD1FB79012B07D1084B93F881303A
:102990000A491846FEF7FCFC00BF00BF1037BD46D1
:1029A00080BD00BF380200203A020020B4010020A0
:1029B000CD010020C0AF00081400002046E0010057
:1029C00080B586B000AFFFF713FD38613B69B3F106
:1029D000FF3F23D0FFF724FDB860FFF715FD7860B7
:1029E0003B69DAB2164B1A703B691B0ADAB2144B18
:1029F0005A707B68DAB2124B9A70BB68DAB2104B2D
:102A0000DA70BB681B0ADAB20D4B1A71BB681B0C7B
:102A1000DAB20B4B5A710A4B7B610BE0002005F0D8
:102A200035FDF860FB68002B02D0FB687B6101E09C
:102A3000044B7B617B6918461837BD4680BD00BFDB
:102A4000D002002098AF000880B582B000AF01200E
:102A500000F0F6FC094B93F88030052B0AD00023D8
:102A6000FB7104F0F7FA0346FB71044B002283F874
:102A7000802000BF00BF0837BD4680BDB4010020E4
:102A800080B500AF0021012006F048FD00BF80BDE9
:102A900080B500AF012000F0D3FC00BF80BD000076
:102AA00090B589B002AF0346FB80244B1B78012B05
:102AB0003FD1224B00221A70214B1B780133002B8F
:102AC00003F00103B8BF5B42DAB21D4B1A701C4B16
:102AD0001B781C4A9B00134493ED007AF7EE046ABE
:102AE000C7EE267AFDEEE77A17EE903AFB82144B9A
:102AF0001B78144A9B00134493ED007AF7EE046AA6
:102B0000C7EE267AFDEEE77A17EE903ABB820023F5
:102B10007B824FF4FA733B820B4BD88A7C8ABA8A49
:102B2000F98A3B8A0093234605F076FA0346FB7345
:102B300000BF00BF1C37BD4690BD00BF400700204E
:102B4000410700200C000020B401002080B500AF38
:102B5000084B93F88030012B0AD0064B93F8803055
:102B6000002B05D0034BDB8A1846FFF799FF00BF07
:102B700000BF80BDB401002080B582B000AF786096
:102B80000021082006F0CAFC00BF0837BD4680BD02
:102B900080B582B000AF7860012006F02BFD00BF49
:102BA0000837BD4680BD80B582B000AF7860012097
:102BB00006F040FD00BF0837BD4680BD80B584B03B
:102BC00000AF78607B68FB60FB685B680833184681
:102BD00006F08AF80346FB72FB7A002B03D0FB68F1
:102BE00001221A7002E0FB6800221A7000BF103741
:102BF000BD4680BD80B584B000AF0346FB71FB7954
:102C0000002B02D0012B06D00BE01F23FB60F868DD
:102C100006F0B0FC05E01F23FB60F86806F0CAFC74
:102C200000BF00BF1037BD4680BD000080B582B038
:102C300000AF78607B681B78032B19D0032B52DC24
:102C4000002B02D0012B0AD04DE02A4B01221A7032
:102C5000284B1B7BCC211846FEF79AFB46E0254B00
:102C600000221A70234B1B7B1846FEF705FB3DE044
:102C70007B685B681B78002B17D17B685B6801332E
:102C80001B78012B05D1002000F0C0FB194B01225D
:102C90009A707B685B6801331B78002B05D100209C
:102CA00000F0CEFB134B00229A707B685B681B78A8
:102CB000012B1AD17B685B6801331B78012B05D18E
:102CC000002000F0A3FB0B4B01229A707B685B682D
:102CD00001331B78002B08D1002000F0B1FB054B1D
:102CE00000229A7001E000BF00E000BF00BF08377B
:102CF000BD4680BD3C02002080B582B000AF786048
:102D00007B681B78002B05D0012B00D003E000F07E
:102D100025F800E000BF00BF0837BD4680BD0000B9
:102D200080B500AF094A0021102006F0D5FB084B02
:102D3000012208490020FEF725FA074B00221A70ED
:102D400000F00CF800F020F800BF80BDB92D00089D
:102D5000A92D0008480200203C02002080B500AFE9
:102D6000002000F06DFB074B01225A70054B00223A
:102D70009A70044B01221A72024B00225A7200BF51
:102D800080BD00BF3C02002080B400AF054BF222A2
:102D90009A80044B1A22DA8000BFBD465DF8047B9E
:102DA000704700BF3C02002080B500AF002110201A
:102DB00006F0B4FB00BF80BD80B582B000AF1D4BF4
:102DC000D3E900014FF000024FF00003020E42EA87
:102DD00001220B16D3B23B71164BD3E900014FF021
:102DE00000024FF00003020C42EA01420B14D3B27E
:102DF0007B71104BD3E900014FF000024FF000034C
:102E0000020A42EA01620B12D3B2BB71094BD3E949
:102E10000023D3B2FB71084B1B78002B06D03B1D5F
:102E200019464FF6426005F05DFC00BF00BF083751
:102E3000BD4680BD200400203C02002080B400AFCD
:102E4000054BDB68044A43F40043D36000BFBD4632
:102E50005DF8047B704700BF0004005880B483B065
:102E600000AF7860064BD3F8D42005497B68134344
:102E7000C1F8D43000BF0C37BD465DF8047B704705
:102E80000008005880B483B000AF7860054B1A6A20
:102E900004497B6813430B6200BF0C37BD465DF8E5
:102EA000047B70470008005880B485B000AF78609C
:102EB0004FF0B0431A6D4FF0B0417B6813430B6580
:102EC0004FF0B0431A6D7B681340FB60FB6800BF96
:102ED0001437BD465DF8047B704780B485B000AF01
:102EE00078604FF0B043D3F850214FF0B0417B6889
:102EF0001343C1F850314FF0B043D3F850217B68F1
:102F00001340FB60FB6800BF1437BD465DF8047BCF
:102F1000704780B483B000AF78607B681B6843F46F
:102F200080327B681A6000BF0C37BD465DF8047BB9
:102F3000704780B483B000AF78607B681B6843F053
:102F400001027B681A6000BF0C37BD465DF8047B48
:102F5000704780B483B000AF786039607B685A688E
:102F60003B681B04DB431A407B685A6000BF0C3788
:102F7000BD465DF8047B704780B483B000AF7860D5
:102F800039607B685A683B681B041A437B685A6047
:102F900000BF0C37BD465DF8047B704780B483B03A
:102FA00000AF786039607B685A683B68DB431A4041
:102FB0007B685A6000BF0C37BD465DF8047B7047E4
:102FC00080B483B000AF786039607B683A689A60FB
:102FD00000BF0C37BD465DF8047B704780B483B0FA
:102FE00000AF786039603B681A047B689A6000BF64
:102FF0000C37BD465DF8047B704780B483B000AFEA
:10300000786039607B68DA683B6813403A689A42B6
:1030100001D1012300E0002318460C37BD465DF8BE
:10302000047B704780B483B000AF786039607B6800
:10303000DA693B6813403A689A4201D1012300E003
:10304000002318460C37BD465DF8047B704700002E
:1030500080B500AF02211948FFF7E4FF0346002BBB
:1030600009D0164B5B68DB4303F00203002B02D050
:1030700000F0EAF81FE001211048FFF7D3FF0346F4
:10308000002B08D00D4B5B6803F00103002B02D12D
:1030900000F09EF80FE008210848FFF7C3FF034641
:1030A000002B09D0054B5B68DB4303F00803002BC2
:1030B00002D000F015F900BF00BF80BD000C005821
:1030C00080B500AF02212248FFF797FF0346002B8F
:1030D00009D11F4B5B68DB4303F40033002B02D0A4
:1030E00000F0A6F831E002211948FFF786FF0346F9
:1030F000002B09D1164B5B68DB4303F40033002B34
:1031000002D000F095F820E008211148FFF775FF84
:103110000346002B09D10E4B5B68DB4303F400230D
:10312000002B02D000F0BEF80FE020210848FFF786
:1031300064FF0346002B09D1054B5B68DB4303F4B6
:103140000013002B02D000F04FF800BF00BF80BD7D
:10315000000C005880B500AF4FF48010FFF7BDFEA3
:103160004FF40070FFF77AFE4FF40070FFF78AFE0D
:1031700040BF20BFFFF762FE00BF80BD80B500AF3B
:103180004FF48010FFF790FE0648FFF7D2FE054887
:10319000FFF7BFFE2C2000F098FC2D2000F095FCDE
:1031A00000BF80BD000C005880B500AF012102486F
:1031B000FFF7F4FE00BF80BD000C005880B500AFE3
:1031C00001210248FFF70AFF00BF80BD000C005834
:1031D00080B500AF05F06CFE01210248FFF7F0FE5C
:1031E00000BF80BD000C005880B500AF202103480F
:1031F000FFF7C2FE05F08CFE00BF80BD000C00583A
:1032000080B500AF02210248FFF7C8FE00BF80BDB5
:10321000000C005880B500AF02210448FFF7DEFE25
:1032200002210248FFF795FE00BF80BD000C005848
:1032300080B500AF02210348FFF79EFE05F0B8FEFF
:1032400000BF80BD000C005880B500AF05F0C6FE81
:1032500002210248FFF7B4FE00BF80BD000C0058F9
:1032600080B582B000AF786008210C48FFF7C5FE3A
:103270000346002B07D00A4A7B68136008210748E1
:10328000FFF767FE06E07B68984708210348FFF7D1
:10329000A5FE00BF0837BD4680BD00BF000C00582A
:1032A000D802002080B500AF08210648FFF764FE71
:1032B000054B1B68984708210248FFF78FFE00BFA7
:1032C00080BD00BF000C0058D802002080B500AFC0
:1032D00008210248FFF762FE00BF80BD000C0058C5
:1032E00080B500AF05F022FF08210248FFF768FE15
:1032F00000BF80BD000C0058D458C4500433C4181B
:103300008C42F9D37047036004308842FBD3704786
:103310000C4885460C480D490D4A0023FFF7EFFF86
:103320000C480D490023FFF7F0FF0C480C4900231F
:10333000FFF7EBFF00F02AF906F00CFAFEF72EFA81
:10334000FEE7000000000320080000201801002014
:10335000F0B20008A002002058070020E00103207E
:10336000570A0320FEE780B485B000AF78604FF0C5
:10337000B043DA6C4FF0B0417B681343CB644FF03D
:10338000B043DA6C7B681340FB60FB6800BF143706
:10339000BD465DF8047B704780B588B000AF03463A
:1033A000FB7107F10C0300221A605A609A60DA6020
:1033B0001A610220FFF7D7FFFB79124A32F8133067
:1033C000FB6001233B6100237B610223BB61FB792E
:1033D0000D4A52F8233007F10C021146184600F04E
:1033E00025FDFB79084A52F82300FB79054A32F89B
:1033F00013300022194600F089FE00BF2037BD4679
:1034000080BD00BFC8AF00082400002080B582B096
:1034100000AF0346FB71FB79074A52F82300FB79A2
:10342000064A32F813300122194600F06FFE00BF41
:103430000837BD4680BD00BF24000020C8AF00088B
:1034400080B582B000AF0346FB71FB79074A52F8A2
:103450002300FB79064A32F813300022194600F0A7
:1034600055FE00BF0837BD4680BD00BF24000020C8
:10347000C8AF000880B582B000AF0346FB71FB798E
:10348000074A52F82320FB79064931F813301946D0
:10349000104600F053FE00BF0837BD4680BD00BF98
:1034A00024000020C8AF000880B588B000AF0346F4
:1034B0000A46FB711346BB7107F10C0300221A6028
:1034C0005A609A60DA601A61FB79002B03D10420FC
:1034D000FFF749FF0CE0FB79012B03D10820FFF730
:1034E00042FF05E0FB79022B02D10820FFF73BFFEA
:1034F000BB79002B17D1FB79204A32F81330FB60DF
:1035000000233B6101237B610223BB61FB791C4AE1
:1035100052F8233007F10C021146184600F086FCE1
:103520000120FEF789FBBB79012B22D1FB79134ADD
:1035300032F81330FB6001237B61124B3B61FB7956
:103540000F4A52F8233007F10C021146184600F0DA
:103550006DFCFB790C4AD35C5BB200220F2118464C
:1035600000F099FAFB79084AD35C5BB2184600F088
:10357000ACFA00BF2037BD4680BD00BFD0AF000809
:103580003000002000002110D8AF000880B400AF48
:10359000264B00229A60254BD3F88830234A43F407
:1035A0007003C2F888304FF0B0431B684FF0B04250
:1035B00043F0010313604FF0B0434FF4E0229A60F0
:1035C0004FF0B0431A684FF0B041194B13400B60F5
:1035D0004FF0B043D3F894304FF0B04223F00503DE
:1035E000C2F894304FF0B043D3F898304FF0B04267
:1035F00023F00103C2F898304FF0B0430D4ADA606F
:103600004FF0B0430B4A1A614FF0B0431B684FF0C4
:10361000B04223F4802313604FF0B04300229A613C
:1036200000BFBD465DF8047B704700BF00ED00E0C1
:10363000FBFEF6FA0010042280B400AF054B5B6875
:10364000044A23F00103536000BFBD465DF8047BCC
:10365000704700BF002004E080B400AF054B5B68FA
:10366000044A23F00203536000BFBD465DF8047BAB
:10367000704700BF002004E080B400AF054B5B68DA
:10368000044A23F00403536000BFBD465DF8047B89
:10369000704700BF002004E080B582B000AF002377
:1036A000FB710C4B1B680B4A43F4807313600320BF
:1036B00000F0E6F9002000F00FF80346002B02D0DE
:1036C0000123FB7101E0FEF726FDFB791846083760
:1036D000BD4680BD0040005880B584B000AF786022
:1036E0000023FB73174B1B78002B24D001F094FFB1
:1036F0000246144B1B7819464FF47A73B3FBF1F36F
:10370000B2FBF3F3184600F0FCF90346002B0FD18F
:103710007B680F2B09D8002279684FF0FF3000F04A
:10372000BAF9094A7B68136007E00123FB7304E0E0
:103730000123FB7301E00123FB73FB7B1846103769
:10374000BD4680BD440000204000002080B400AF92
:10375000064B1B781A46064B1B681344044A136039
:1037600000BFBD465DF8047B704700BF44000020E9
:103770004407002080B400AF034B1B681846BD46C9
:103780005DF8047B704700BF4407002080B400AFA1
:10379000034B1B681846BD465DF8047B704700BFAD
:1037A0004000002080B400AF034B1B781846BD4694
:1037B0005DF8047B704700BF4400002080B400AF78
:1037C000054B1B68044A23F00203136000BFBD468B
:1037D0005DF8047B704700BF10E000E080B400AFEC
:1037E000054B1B68044A43F00203136000BFBD464B
:1037F0005DF8047B704700BF10E000E080B500AFCB
:10380000FFF71AFF00BF80BD80B500AFFFF724FFB0
:1038100000BF80BD80B500AFFFF72EFF00BF80BDA9
:1038200080B485B000AF78607B6803F00703FB606D
:103830000C4BDB68BB60BA684FF6FF031340BB60FC
:10384000FB681A02BB68134343F0BF6343F40033C1
:10385000BB60044ABB68D36000BF1437BD465DF847
:10386000047B704700ED00E080B400AF044BDB68E0
:103870001B0A03F007031846BD465DF8047B70473A
:1038800000ED00E080B483B000AF0346FB7197F910
:103890000730002B0BDBFB7903F01F02074997F978
:1038A00007305B09012000FA02F241F8232000BF33
:1038B0000C37BD465DF8047B704700BF00E100E0B7
:1038C00080B483B000AF0346FB7197F90730002B3B
:1038D00012DBFB7903F01F020A4997F907305B09F5
:1038E000012000FA02F2203341F82320BFF34F8F6A
:1038F00000BFBFF36F8F00BF00BF0C37BD465DF840
:10390000047B704700E100E080B483B000AF034661
:10391000FB7197F90730002B0CDBFB7903F01F02DA
:10392000074997F907305B09012000FA02F240339A
:1039300041F8232000BF0C37BD465DF8047B70477B
:1039400000E100E080B483B000AF0346FB7197F95B
:103950000730002B0CDBFB7903F01F02074997F9B6
:1039600007305B09012000FA02F2603341F823209E
:1039700000BF0C37BD465DF8047B704700E100E0F6
:1039800080B483B000AF03463960FB7197F907300C
:10399000002B0ADB3B68DAB20C4997F907301201B9
:1039A000D2B20B4483F800230AE03B68DAB208493C
:1039B000FB7903F00F03043B1201D2B20B441A76D9
:1039C00000BF0C37BD465DF8047B704700E100E0A6
:1039D00000ED00E080B489B000AFF860B9607A60B3
:1039E000FB6803F00703FB61FB69C3F10703042BCA
:1039F00028BF0423BB61FB690433062B02D9FB6992
:103A0000033B00E000237B614FF0FF32BB6902FA09
:103A100003F3DA43BB681A407B699A404FF0FF31E9
:103A20007B6901FA03F3D9437B680B4013431846C3
:103A30002437BD465DF8047B7047000080B582B036
:103A400000AF78607B68013BB3F1807F01D3012335
:103A50000FE00A4A7B68013B53600F214FF0FF30B3
:103A6000FFF78EFF054B00229A60044B07221A6075
:103A7000002318460837BD4680BD00BF10E000E0B7
:103A800080B582B000AF78607868FFF7C9FE00BFEC
:103A90000837BD4680BD80B586B000AF0346B9602B
:103AA0007A60FB73FFF7E0FE78617A68B96878693D
:103AB000FFF790FF024697F90F3011461846FFF7BF
:103AC0005FFF00BF1837BD4680BD80B582B000AF34
:103AD0000346FB7197F907301846FFF7D3FE00BF86
:103AE0000837BD4680BD80B582B000AF0346FB718C
:103AF00097F907301846FFF7E3FE00BF0837BD46C9
:103B000080BD80B582B000AF78607868FFF796FF1F
:103B1000034618460837BD4680BD80B582B000AF69
:103B20000346FB7197F907301846FFF7EDFE00BF1B
:103B30000837BD4680BD80B582B000AF0346FB713B
:103B400097F907301846FFF7FDFE00BF0837BD465E
:103B500080BD80B483B000AF78607B68002B01D15A
:103B600001234FE07B6893F82530DBB2022B08D0AD
:103B70007B680422DA637B68002283F82420012317
:103B800040E07B681B681A687B681B6822F00E02A5
:103B90001A607B689B6C1A687B689B6C22F480724D
:103BA0001A607B681B681A687B681B6822F0010238
:103BB0001A607B685B6C03F01C027B681B6C012144
:103BC00001FA02F25A607B68DB6C7A68126D5A6007
:103BD0007B685B6D002B0CD07B685B6D1A687B6823
:103BE0005B6D22F480721A607B689B6D7A68D26D7F
:103BF0005A607B68012283F825207B68002283F8C5
:103C00002420002318460C37BD465DF8047B70471E
:103C100080B584B000AF78600023FB737B6893F8B5
:103C20002530DBB2022B05D07B680422DA63012346
:103C3000FB7347E07B681B681A687B681B6822F08F
:103C40000E021A607B681B681A687B681B6822F08A
:103C500001021A607B689B6C1A687B689B6C22F47B
:103C600080721A607B685B6C03F01C027B681B6CC3
:103C7000012101FA02F25A607B68DB6C7A68126DEE
:103C80005A607B685B6D002B0CD07B685B6D1A689B
:103C90007B685B6D22F480721A607B689B6D7A682A
:103CA000D26D5A607B68012283F825207B68002250
:103CB00083F824207B689B6B002B03D07B689B6B75
:103CC00078689847FB7B18461037BD4680BD80B5A5
:103CD00084B000AF78607B681B6C1B68FB607B68FE
:103CE0001B681B68BB607B685B6C03F01C030422D1
:103CF0009A40FB681340002B26D0BB6803F00403F6
:103D0000002B21D07B681B681B6803F02003002B6D
:103D100007D17B681B681A687B681B6822F0040265
:103D20001A607B685B6C03F01C027B681B6C0421CF
:103D300001FA02F25A607B681B6B002B71D07B6822
:103D40001B6B786898476CE07B685B6C03F01C0326
:103D500002229A40FB681340002B2ED0BB6803F070
:103D60000203002B29D07B681B681B6803F020032B
:103D7000002B0BD17B681B681A687B681B6822F0DC
:103D80000A021A607B68012283F825207B685B6C3D
:103D900003F01C027B681B6C022101FA02F25A60DC
:103DA0007B68002283F824207B68DB6A002B38D0F4
:103DB0007B68DB6A7868984733E07B685B6C03F06C
:103DC0001C0308229A40FB681340002B2AD0BB68D2
:103DD00003F00803002B25D07B681B681A687B68FA
:103DE0001B6822F00E021A607B685B6C03F01C02F9
:103DF0007B681B6C012101FA02F25A607B68012288
:103E0000DA637B68012283F825207B68002283F82F
:103E100024207B685B6B002B04D07B685B6B78682D
:103E2000984700BF00BF1037BD4680BD80B487B043
:103E300000AF7860396000237B614CE13B681A6811
:103E400001217B6901FA03F31340FB60FB68002B3F
:103E500000F03E813B685B68012B0BD03B685B68E0
:103E6000022B07D03B685B68112B03D03B685B6873
:103E7000122B30D17B689B683B617B695B0003221E
:103E800002FA03F3DB433A6913403B613B68DA68AB
:103E90007B695B0002FA03F33A6913433B617B6879
:103EA0003A699A607B685B683B6101227B6902FA30
:103EB00003F3DB433A6913403B613B685B681B09D2
:103EC00003F001027B6902FA03F33A6913433B6191
:103ED0007B683A695A607B68DB683B617B695B00A1
:103EE000032202FA03F3DB433A6913403B613B6868
:103EF0009A687B695B0002FA03F33A6913433B61FA
:103F00007B683A69DA603B685B68022B03D03B68E8
:103F10005B68122B23D17B69DA087B68083253F87F
:103F200022303B617B6903F007039B000F2202FAFA
:103F300003F3DB433A6913403B613B681A697B69D1
:103F400003F007039B0002FA03F33A6913433B6152
:103F50007B69DA087B680832396943F822107B688C
:103F60001B683B617B695B00032202FA03F3DB43BE
:103F70003A6913403B613B685B6803F003027B696D
:103F80005B0002FA03F33A6913433B617B683A69C9
:103F90001A603B685B6803F08053002B00F0988048
:103FA000544A7B699B08023352F823303B617B699A
:103FB00003F003039B000F2202FA03F3DB433A6989
:103FC00013403B617B68B3F1904F19D07B684A4A3C
:103FD000934213D07B68494A93420DD07B68484A8C
:103FE000934207D07B68474A934201D1042308E0FB
:103FF000072306E0032304E0022302E0012300E09C
:1040000000237A6902F00302920093403A69134355
:104010003B6138497B699B0802333A6941F82320A8
:10402000394BD3F880303B61FB68DB433A6913407E
:104030003B613B685B6803F48033002B03D03A6933
:10404000FB6813433B61304A3B69C2F880302E4B1A
:10405000D3F884303B61FB68DB433A6913403B6132
:104060003B685B6803F40033002B03D03A69FB68BC
:1040700013433B61244A3B69C2F88430224B1B68DE
:104080003B61FB68DB433A6913403B613B685B681B
:1040900003F48013002B03D03A69FB6813433B61A0
:1040A000194A3B691360184B5B683B61FB68DB4353
:1040B0003A6913403B613B685B6803F40013002BD3
:1040C00003D03A69FB6813433B610F4A3B69536075
:1040D0007B6901337B613B681A687B6922FA03F3D1
:1040E000002B7FF4ABAE00BF00BF1C37BD465DF8B0
:1040F000047B7047000001400004004800080048AD
:10410000000C0048001000480008005880B483B03C
:1041100000AF78600B467B8013467B707B78002B6A
:1041200003D07A887B689A6102E07A887B689A6219
:1041300000BF0C37BD465DF8047B704780B485B086
:1041400000AF78600B467B807B685B69FB607A8898
:10415000FB6813401A04FB68D9437B880B401A4361
:104160007B689A6100BF1437BD465DF8047B7047D9
:1041700080B582B000AF0346FB80084BDA68FB884D
:104180001340002B06D0054AFB88D360FB881846F5
:10419000FCF79AFA00BF0837BD4680BD00080058FA
:1041A00080B582B000AF0A4BDB687B60084B1A68B1
:1041B0007B68DB43064913400B60054A7B6853600C
:1041C000786800F007F800BF0837BD4680BD00BF23
:1041D0000015005880B483B000AF786000BF0C3782
:1041E000BD465DF8047B704780B584B000AF786051
:1041F0000023FB737B68002B1ED0134BBB607B68D6
:1042000093F83830DBB2002B02D17868FDF7ACFFB1
:10421000B86800F05BF8BB681B6843F00112BB682C
:104220001A60786800F02CF87B6800225A637B687B
:10423000012283F8382001E00123FB73FB7B184641
:104240001037BD4680BD00BF000C005880B485B05B
:1042500000AFF860B9601346FB7100BF1437BD466C
:104260005DF8047B704780B485B000AFF860B9603A
:104270001346FB7100BF1437BD465DF8047B7047E1
:1042800080B485B000AF78600023FB600FE07A68EF
:10429000FB689B0013440B4A5A607A68FB6806333C
:1042A0009B001344084A5A60FB680133FB60FB68BB
:1042B000052BECD900BF00BF1437BD465DF8047B69
:1042C000704700BF4D4200086742000880B483B0C9
:1042D00000AF78607B6800221A607B684FF03F1265
:1042E0005A607B683F229A6000BF0C37BD465DF87C
:1042F000047B704780B483B000AF7860064BD3F87E
:10430000802005497B681343C1F8803000BF0C371B
:10431000BD465DF8047B70470008005880B483B048
:1043200000AF7860074BD3F880207B68DB430549FA
:104330001340C1F8803000BF0C37BD465DF8047BE8
:10434000704700BF0008005880B483B000AF7860A9
:10435000074BD3F8C0207B68DB4305491340C1F805
:10436000C03000BF0C37BD465DF8047B704700BF0E
:104370000008005880B483B000AF7860054B1A681D
:1043800004497B6813430B6000BF0C37BD465DF8E2
:10439000047B70470008005880B483B000AF786099
:1043A000064B1A687B68DB43044913400B6000BF6F
:1043B0000C37BD465DF8047B704700BF000800580D
:1043C00080B483B000AF7860054B5A6804497B68BD
:1043D00013434B6000BF0C37BD465DF8047B70474C
:1043E0000008005880B483B000AF7860064B5A686C
:1043F0007B68DB43044913404B6000BF0C37BD466C
:104400005DF8047B704700BF0008005880B400AF1F
:10441000054B1B68044A43F48073136000BFBD461C
:104420005DF8047B704700BF0004005880B582B07F
:1044300000AF78601D4B5B6823F00E027B681B6841
:104440001A4913434B604FF48030FFF767FF4FF476
:104450008030FFF779FF4FF48030FFF7C3FF4FF450
:104460008030FFF799FF7B685B6803F48033002B93
:1044700003D04FF48030FFF73DFF7B685B6803F0AB
:104480000103002B03D04FF48030FFF773FF7B68EC
:104490005B6803F00203002B03D04FF48030FFF77A
:1044A0008FFF002318460837BD4680BD0004005822
:1044B00080B400AF054B5B68044A43F001035360CE
:1044C00000BFBD465DF8047B704700BF0004005884
:1044D00080B400AF044B1B6803F4C0631846BD46AC
:1044E0005DF8047B704700BF0004005880B400AF43
:1044F0004FF0B0431B6803F48013B3F5801F01D164
:10450000012300E000231846BD465DF8047B704798
:1045100080B400AF4FF0B0431B684FF0B04243F49B
:104520008033136000BFBD465DF8047B704780B4E4
:1045300000AF4FF0B0431B684FF0B04223F480331C
:10454000136000BFBD465DF8047B704780B400AFC8
:104550004FF0B0431B6803F40033B3F5003F01D1C3
:10456000012300E000231846BD465DF8047B704738
:1045700080B400AF4FF0B0431B684FF0B04243F43B
:104580008073136000BFBD465DF8047B704780B444
:1045900000AF4FF0B0431B684FF0B04223F480737C
:1045A000136000BFBD465DF8047B704780B400AF68
:1045B0004FF0B0431B6803F48063B3F5806F01D103
:1045C000012300E000231846BD465DF8047B7047D8
:1045D00080B483B000AF78604FF0B0435B6823F0E5
:1045E000FE427B681B064FF0B04113434B6000BF97
:1045F0000C37BD465DF8047B704780B400AF4FF0C8
:10460000B043D3F898304FF0B04243F00103C2F802
:10461000983000BFBD465DF8047B704780B400AFA2
:104620004FF0B043D3F898304FF0B04223F001037D
:10463000C2F8983000BFBD465DF8047B704780B477
:1046400000AF4FF0B043D3F8983003F00203022BD1
:1046500001D1012300E000231846BD465DF8047B2C
:10466000704780B400AF4FF0B043D3F890304FF0B4
:10467000B04243F00103C2F8903000BFBD465DF880
:10468000047B704780B400AF4FF0B043D3F8903054
:104690004FF0B04223F00103C2F8903000BFBD4696
:1046A0005DF8047B704780B400AF4FF0B043D3F89F
:1046B00090304FF0B04243F00403C2F8903000BF96
:1046C000BD465DF8047B704780B400AF4FF0B04347
:1046D000D3F890304FF0B04223F00403C2F890308A
:1046E00000BFBD465DF8047B704780B400AF4FF05B
:1046F000B043D3F8903003F00203022B01D1012321
:1047000000E000231846BD465DF8047B704780B486
:1047100000AF4FF0B043D3F894304FF0B04243F0C5
:104720000103C2F8943000BFBD465DF8047B7047BA
:1047300080B400AF4FF0B043D3F894304FF0B042A4
:1047400023F00103C2F8943000BFBD465DF8047B3E
:10475000704780B400AF4FF0B043D3F8943003F00B
:104760000203022B01D1012300E000231846BD46BD
:104770005DF8047B704780B400AF4FF0B043D3F8CE
:1047800094304FF0B04243F00403C2F8943000BFBD
:10479000BD465DF8047B704780B400AF4FF0B04376
:1047A000D3F894304FF0B04223F00403C2F89430B1
:1047B00000BFBD465DF8047B704780B400AF4FF08A
:1047C000B043D3F8943003F00803082B01D1012340
:1047D00000E000231846BD465DF8047B704780B4B6
:1047E00083B000AF78604FF0B043D3F8943023F437
:1047F00070627B681B024FF0B0411343C1F89430E4
:1048000000BF0C37BD465DF8047B704780B400AF35
:104810004FF0B0431B684FF0B04243F00103136008
:1048200000BFBD465DF8047B704780B400AF4FF019
:10483000B0431B684FF0B04223F00103136000BF88
:10484000BD465DF8047B704780B400AF4FF0B043C5
:104850001B6803F00203022B01D1012300E00023B7
:104860001846BD465DF8047B704780B483B000AF46
:1048700078604FF0B0431B6823F0F0024FF0B04176
:104880007B6813430B6000BF0C37BD465DF8047BAB
:10489000704780B483B000AF4FF0B0431B6803F0A3
:1048A000F0037B607B68B02B01D9B0237B607B6811
:1048B00018460C37BD465DF8047B704780B483B062
:1048C00000AF78604FF0B0435B6823F47F427B68B1
:1048D0001B024FF0B04113434B6000BF0C37BD4685
:1048E0005DF8047B704780B483B000AF78604FF010
:1048F000B0439B6823F003024FF0B0417B68134341
:104900008B6000BF0C37BD465DF8047B704780B4F8
:1049100000AF4FF0B0439B6803F00C031846BD4650
:104920005DF8047B704780B483B000AF78604FF0CF
:10493000B0439B6823F0F0024FF0B0417B68134313
:104940008B6000BF0C37BD465DF8047B704780B4B8
:1049500083B000AF78604FF0B043D3F8083123F054
:10496000F0024FF0B0417B681343C1F8083100BF3B
:104970000C37BD465DF8047B704780B483B000AF50
:1049800078604FF0B043D3F8083123F00F027B6812
:104990001B094FF0B0411343C1F8083100BF0C3779
:1049A000BD465DF8047B704780B483B000AF78608B
:1049B0004FF0B0439B6823F4E0624FF0B0417B6856
:1049C00013438B6000BF0C37BD465DF8047B704716
:1049D00080B483B000AF78604FF0B0439B6823F49D
:1049E00060524FF0B0417B6813438B6000BF0C37BF
:1049F000BD465DF8047B704780B400AF4FF0B04314
:104A00009B6803F0F0031846BD465DF8047B7047D1
:104A100080B400AF4FF0B043D3F808311B0103F06E
:104A2000F0031846BD465DF8047B704780B400AFC4
:104A30004FF0B0431B684FF0B04243F080731360F7
:104A400000BFBD465DF8047B704780B400AF4FF0F7
:104A5000B0431B684FF0B04223F08073136000BF77
:104A6000BD465DF8047B704780B400AF4FF0B043A3
:104A70001B6803F00073B3F1007F01D1012300E054
:104A800000231846BD465DF8047B704780B400AF34
:104A90004FF0B043DB681B0A03F07F031846BD46A6
:104AA0005DF8047B704780B400AF4FF0B043DB6823
:104AB00003F060431846BD465DF8047B704780B440
:104AC00000AF4FF0B043DB6803F070031846BD46FB
:104AD0005DF8047B704780B400AF4FF0B043DB68F3
:104AE00003F003031846BD465DF8047B704780B4AD
:104AF00000AF4FF0B0439B6803F48033B3F5803FC1
:104B000001D1012300E000231846BD465DF8047B77
:104B1000704780B400AF4FF0B043D3F8083103F4CE
:104B20000033B3F5003F01D1012300E00023184614
:104B3000BD465DF8047B704780B400AF4FF0B043D2
:104B4000D3F8083103F48033B3F5803F01D101235A
:104B500000E000231846BD465DF8047B704780B432
:104B600000AF4FF0B0439B6803F40033B3F5003F50
:104B700001D1012300E000231846BD465DF8047B07
:104B8000704780B400AF4FF0B0439B6803F48023BC
:104B9000B3F5802F01D1012300E000231846BD4664
:104BA0005DF8047B7047000090B58DB000AF786071
:104BB0007B68002B01D101237EE37B681B6803F037
:104BC0002003002B00F09280FFF7A1FEF862FFF7B0
:104BD00082FFB862FB6A002B05D0FB6A0C2B4CD11C
:104BE000BB6A012B49D1FFF72FFE0346002B05D0EE
:104BF0007B68DB69002B01D101235DE37B685C6A84
:104C0000FFF747FE03469C4214D97B685B6A18464F
:104C100000F016FD0346002B01D001234CE37B6816
:104C20005B6A1846FFF721FE7B681B6A1846FFF790
:104C300045FE13E07B685B6A1846FFF716FE7B684B
:104C40001B6A1846FFF73AFE7B685B6A184600F05D
:104C5000F7FC0346002B01D001232DE300F0DCFC20
:104C60000346B34A1360B34B1B681846FEF734FD86
:104C70000346002B39D001231EE37B68DB69002B40
:104C80001ED0FFF7C3FDFEF775FD786208E0FEF762
:104C900071FD02467B6AD31A022B01D903230BE371
:104CA000FFF7D2FD0346002BF1D07B685B6A184604
:104CB000FFF7DBFD7B681B6A1846FFF7FFFD15E079
:104CC000FFF7B3FDFEF756FD786208E0FEF752FDF0
:104CD00002467B6AD31A022B01D90323ECE2FFF7C9
:104CE000B3FD0346002BF1D100E000BF7B681B68D9
:104CF00003F00103002B4ED0FFF709FE3862FFF7E7
:104D0000EAFEF8613B6A082B05D03B6A0C2B0DD1FB
:104D1000FB69032B0AD1FFF719FC0346002B39D09E
:104D20007B685B68002B35D10123C5E27B685B683B
:104D3000B3F5803F02D1FFF7EBFB01E0FFF7F7FB94
:104D40007B685B68002B12D0FEF714FD786208E0E8
:104D5000FEF710FD02467B6AD31A642B01D90323A8
:104D6000AAE2FFF7F3FB0346002BF1D013E0FEF7B6
:104D700001FD786208E0FEF7FDFC02467B6AD31A6B
:104D8000642B01D9032397E2FFF7E0FB0346002BD6
:104D9000F1D100E000BF7B681B6803F00203002B29
:104DA00051D0FFF7B4FDB861FFF795FE7861BB699C
:104DB000042B05D0BB690C2B13D17B69022B10D1BE
:104DC000FFF7F4FB0346002B05D07B68DB68002B64
:104DD00001D1012370E27B681B691846FFF7F8FBDD
:104DE00031E07B68DB68002B19D0FFF7C1FBFEF7D1
:104DF000C1FC786208E0FEF7BDFC02467B6AD31A6C
:104E0000022B01D9032357E2FFF7D0FB0346002B07
:104E1000F1D07B681B691846FFF7DAFB13E0FFF758
:104E2000B6FBFEF7A7FC786208E0FEF7A3FC02469B
:104E30007B6AD31A022B01D903233DE2FFF7B6FBAD
:104E40000346002BF1D17B681B6803F00803002B9D
:104E500006D17B681B6803F01003002B00F0A380D1
:104E60007B685B69002B76D07B681B6803F01003BE
:104E7000002B46D0FFF76DFC0346002B13D1FFF744
:104E800046FCFEF777FC786208E0FEF773FC02460A
:104E90007B6AD31A022B01D903230DE2FFF759FCD9
:104EA0000346002BF1D0FFF766FCFEF763FC786247
:104EB00008E0FEF75FFC02467B6AD31A032B01D998
:104EC0000323F9E1FFF779FC0346002BF1D07B685F
:104ED0009B691846FFF783FCFFF72AFCFEF74AFCA4
:104EE000786208E0FEF746FC02467B6AD31A022B82
:104EF00001D90323E0E1FFF72CFC0346002BF1D19D
:104F000051E0FFF704FCFEF735FC786208E0FEF79D
:104F100031FC02467B6AD31A022B01D90323CBE171
:104F2000FFF717FC0346002BF1D0FFF735FC0CE030
:104F30003C00002040000020FEF71CFC02467B6A7B
:104F4000D31A032B01D90323B6E1FFF736FC03463E
:104F5000002BF1D127E0FFF71FFCFEF70BFC786276
:104F600008E0FEF707FC02467B6AD31A032B01D93F
:104F70000323A1E1FFF721FC0346002BF1D1FFF74A
:104F8000D7FBFEF7F7FB786208E0FEF7F3FB02467B
:104F90007B6AD31A022B01D903238DE1FFF7D9FBDA
:104FA0000346002BF1D17B681B6803F00403002B40
:104FB0005BD0B54B1B6803F48073002B14D1FFF753
:104FC00025FAFEF7D7FB786208E0FEF7D3FB02462E
:104FD0007B6AD31A022B01D903236DE1AA4B1B680C
:104FE00003F48073002BF0D07B689B68012B02D107
:104FF000FFF737FB0CE07B689B68052B04D1FFF7BC
:1050000052FBFFF72EFB03E0FFF73CFBFFF75CFBD7
:105010007B689B68002B14D0FEF7ACFB78620AE03B
:10502000FEF7A8FB02467B6AD31A41F2883293420C
:1050300001D9032340E1FFF758FB0346002BEFD0D3
:1050400013E0FEF797FB78620AE0FEF793FB024657
:105050007B6AD31A41F28832934201D903232BE1B0
:10506000FFF743FB0346002BEFD17B681B6803F07F
:105070004003002B2CD07B689B6A002B14D0FFF7D9
:10508000BCFAFEF777FB786208E0FEF773FB024696
:105090007B6AD31A022B01D903230DE1FFF7CFFA64
:1050A0000346002BF1D013E0FFF7B8FAFEF762FBDE
:1050B000786208E0FEF75EFB02467B6AD31A022B99
:1050C00001D90323F8E0FFF7BAFA0346002BF1D128
:1050D0007B68DB6A002B00F0EE80FFF718FC38617C
:1050E0004FF0B043DB68FB607B68DB6A022B40F06B
:1050F000AF80FB6803F003027B681B6B9A4223D1ED
:10510000FB6803F070027B685B6B9A421CD1FB6802
:105110001B0A03F07F027B689B6B9A4214D1FB68E9
:1051200003F478127B68DB6B9A420DD1FB6803F0C5
:1051300060627B681B6C9A4206D1FB6803F0604298
:105140007B685B6C9A425DD03B690C2B58D04FF06A
:10515000B0431B6803F08063002B01D00123ABE058
:10516000FFF773FCFEF706FB786208E0FEF702FB30
:1051700002467B6AD31A022B01D903239CE04FF02D
:10518000B0431B6803F00073002BEFD14FF0B04326
:10519000DA683E4B13407A68116B7A68526B1143A0
:1051A0007A68926B120211437A68D26B11437A6863
:1051B000126C11437A68526C0A434FF0B0411343AA
:1051C000CB60FFF733FC4FF0B043DB684FF0B042E9
:1051D00043F08053D360FEF7CDFA786208E0FEF723
:1051E000C9FA02467B6AD31A022B01D9032363E072
:1051F0004FF0B0431B6803F00073002BEFD05AE070
:10520000012359E04FF0B0431B6803F00073002BFB
:1052100051D1FFF70BFC4FF0B043DB684FF0B042C9
:1052200043F08053D360FEF7A5FA786208E0FEF7FA
:10523000A1FA02467B6AD31A022B01D903233BE071
:105240004FF0B0431B6803F00073002BEFD032E047
:105250003B690C2B2DD0FFF7F8FB4FF0B043DB6818
:105260004FF0B04223F00303D3604FF0B043DB684C
:105270004FF0B04223F0885323F48033D360FEF71D
:1052800079FA78620DE000BF000400588C80C111EB
:10529000FEF770FA02467B6AD31A022B01D9032368
:1052A0000AE04FF0B0431B6803F00073002BEFD10E
:1052B00001E0012300E0002318463437BD4690BDCD
:1052C00080B584B000AF786039607B68002B01D175
:1052D00001232DE1984B1B6803F007033A689A42BB
:1052E0001BD9954B1B6823F0070293493B68134376
:1052F0000B60FEF73FFAF86008E0FEF73BFA024663
:10530000FB68D31A022B01D9032311E18A4B1B68D6
:1053100003F007033A689A42EFD17B681B6803F0F9
:105320000203002B16D07B689B681846FFF7FBFA38
:10533000FEF720FAF86008E0FEF71CFA0246FB6868
:10534000D31A022B01D90323F2E0FFF7D0FB034667
:10535000002BF1D07B681B6803F02003002B16D0D4
:105360007B685B691846FFF7F2FAFEF703FAF8600C
:1053700008E0FEF7FFF90246FB68D31A022B01D9B9
:105380000323D5E0FFF7C5FB0346002BF1D07B6874
:105390001B6803F04003002B16D07B689B691846FE
:1053A000FFF7EBFAFEF7E6F9F86008E0FEF7E2F93E
:1053B0000246FB68D31A022B01D90323B8E0FFF79A
:1053C000BBFB0346002BF1D07B681B6803F0040392
:1053D000002B16D07B68DB681846FFF7E5FAFEF76E
:1053E000C9F9F86008E0FEF7C5F90246FB68D31A70
:1053F000022B01D903239BE0FFF7B1FB0346002BEF
:10540000F1D07B681B6803F00803002B17D07B6882
:105410001B69DB001846FFF7DBFAFEF7ABF9F86013
:1054200008E0FEF7A7F90246FB68D31A022B01D960
:1054300003237DE0FFF7A5FB0346002BF1D07B683B
:105440001B6803F00103002B43D07B685B68022BD1
:1054500006D1FFF77BF80346002B1ED1012367E03E
:105460007B685B68032B06D1FFF7FEFA0346002B2F
:1054700013D101235CE07B685B68002B06D1FFF74A
:10548000E3F90346002B08D1012351E0FFF78EF822
:105490000346002B01D101234AE07B685B68184674
:1054A000FFF721FAFEF766F9F8600AE0FEF762F905
:1054B0000246FB68D31A41F28832934201D9032392
:1054C00036E0FFF724FA02467B685B689B009A424D
:1054D000ECD1194B1B6803F007033A689A421BD2C0
:1054E000154B1B6823F0070213493B6813430B60FD
:1054F000FEF740F9F86008E0FEF73CF90246FB6869
:10550000D31A022B01D9032312E00B4B1B6803F0C3
:1055100007033A689A42EFD100F07EF80346074A43
:105520001360FEF733F903461846FEF7D5F8034635
:1055300018461037BD4680BD004000583C00002092
:1055400090B585B000AFFFF7E2F978607B68002B7B
:105550000AD1FFF79EF903461B0903F00F032B4AFC
:1055600052F82330FB604BE07B68042B02D1284BC0
:10557000FB6045E07B68082B0AD1FEF7B7FF0346C6
:10558000012B02D1224BFB603AE0224BFB6037E05B
:10559000FFF7A1FA38603B68022B03D03B68032B6E
:1055A00003D00DE01A4BBB6015E0FEF79FFF0346EA
:1055B000012B02D1164BBB600DE0164BBB600AE01D
:1055C000FFF767F903461B0903F00F030F4A52F870
:1055D0002330BB6000BFFFF759FA0246BB6803FBEC
:1055E00002F4FFF76CFA03461B090133B4FBF3F432
:1055F000FFF759FA03465B0F0133B4FBF3F3FB608B
:10560000FB6818461437BD4690BD00BF1CB00008AB
:105610000024F4000048E80198B500AFFFF790FFC0
:105620000446FFF7E9F903461B0903F00F03034A99
:1056300052F82330B4FBF3F3184698BDDCAF0008F2
:1056400090B585B000AF78607B68B02B03D9154B5F
:10565000DB6AFB6007E07B681B0903F00F03114A5C
:1056600052F82330FB60FFF7D3F903461B0903F020
:105670000F030D4A52F82330FA68B2FBF3F3BB6014
:10568000BB680A4AA2FB03239C0CFEF721FF0346DA
:105690001946204600F00CF8034618461437BD465C
:1056A00090BD00BF1CB00008DCAF000883DE1B43C8
:1056B00090B593B000AF78603960394B07F128049A
:1056C0000FCB84E80F00374A07F11C0307CA83E8B1
:1056D0000700354B07F10C040FCB84E80F000023C3
:1056E0007B643B68B3F5007F1CD100233B6415E06D
:1056F0003B6C9B0007F14802134453F8203C7A6846
:105700009A4208D83B6C9B0007F14802134453F8B7
:105710003C3C7B6422E03B6C01333B643B6C032BE1
:10572000E6D91BE00023FB6315E0FB6B9B0007F150
:105730004802134453F82C3C7A689A4208D8FB6B11
:105740009B0007F14802134453F83C3C7B6405E09E
:10575000FB6B0133FB63FB6B022BE6D9134B1B681E
:1057600023F0070211497B6C13430B60FEF702F82C
:10577000B86308E0FDF7FEFF0246BB6BD31A022BAD
:1057800001D9032307E0094B1B6803F007037A6C78
:105790009A42EFD1002318464C37BD4690BD00BF5A
:1057A00038AE000848AE000854AE0008004000586B
:1057B00080B400AF4FF0B043D3F8903003F0010352
:1057C000012B01D1012300E000231846BD465DF8FE
:1057D000047B704780B400AF4FF0B043D3F89030F3
:1057E00003F00203022B01D1012300E0002318463D
:1057F000BD465DF8047B704780B483B000AF78602D
:105800004FF0B043D3F8943023F440424FF0B0410E
:105810007B681343C1F8943000BF0C37BD465DF878
:10582000047B704780B483B000AF78604FF0B04322
:105830005B6A23F003024FF0B0417B6813434B6275
:1058400000BF0C37BD465DF8047B704780B483B061
:1058500000AF78604FF0B0435B6A23F030024FF046
:10586000B0417B6813434B6200BF0C37BD465DF807
:10587000047B704780B483B000AF78604FF0B043D2
:10588000D3F8883023F003024FF0B0417B68134314
:10589000C1F8883000BF0C37BD465DF8047B704707
:1058A00080B483B000AF78604FF0B043D3F8883055
:1058B00023F440624FF0B0417B681343C1F8883055
:1058C00000BF0C37BD465DF8047B704780B483B0E1
:1058D00000AF78604FF0B043D3F888207B681B0995
:1058E00003F47F23DB431A407B681B0103F47F230F
:1058F0004FF0B0411343C1F8883000BF0C37BD46AC
:105900005DF8047B704780B483B000AF78604FF0DF
:10591000B043D3F888207B681B0C1B04DB431A4080
:105920007B681B044FF0B0411343C1F8883000BFBF
:105930000C37BD465DF8047B704780B483B000AF80
:1059400078604FF0B043D3F8883023F440024FF032
:10595000B0417B681343C1F8883000BF0C37BD46A7
:105960005DF8047B704780B483B000AF78604FF07F
:10597000B043D3F8883023F040424FF0B0417B6809
:105980001343C1F8883000BF0C37BD465DF8047B77
:10599000704780B483B000AF78604FF0B043D3F865
:1059A000883023F040624FF0B0417B681343C1F868
:1059B000883000BF0C37BD465DF8047B704780B56A
:1059C00082B000AF78607868FFF7E3FF00BF083768
:1059D000BD4680BD80B483B000AF78604FF0B04367
:1059E000D3F8883023F040524FF0B0417B68134326
:1059F000C1F8883000BF0C37BD465DF8047B7047A6
:105A000080B483B000AF78604FF0B043D3F89030EB
:105A100023F440724FF0B0417B681343C1F89030DB
:105A200000BF0C37BD465DF8047B704780B400AF03
:105A30004FF0B043D3F8903003F440731846BD469E
:105A40005DF8047B704780B400AF4FF0B043D3F8EB
:105A500090304FF0B04243F48033C2F8903000BF32
:105A6000BD465DF8047B704780B400AF4FF0B04393
:105A7000D3F890304FF0B04223F48033C2F8903026
:105A800000BFBD465DF8047B704780B400AF4FF0A7
:105A9000B0431B684FF0B04243F08063136000BF17
:105AA000BD465DF8047B704780B400AF4FF0B04353
:105AB0001B684FF0B04223F08063136000BFBD4607
:105AC0005DF8047B704780B400AF4FF0B0431B68B3
:105AD00003F00063B3F1006F01D1012300E0002364
