:020000040800F2
:100000000000032035360008F1220008FF22000816
:10001000052300080B23000811230008000000003E
:10002000000000000000000000000000172300088E
:1000300025230008000000003323000841230008A6
:10004000893600088936000889360008DD23000853
:100050008936000889360008CF2300088936000851
:100060008936000889360008C1230008893600084F
:1000700089360008893600084D23000889360008B3
:100080008936000889360008893600088936000854
:100090008936000889360008893600088936000844
:1000A0008936000889360008893600088936000834
:1000B0008936000889360008893600088936000824
:1000C0008936000889360008893600088936000814
:1000D0006123000875230008893600088936000866
:1000E00089360008893600088936000889360008F4
:1000F0008923000895230008A123000889360008F9
:1001000089360008893600088936000889360008D3
:1001100089360008893600088936000889360008C3
:100120008936000889360008AD23000889360008A2
:0C0130008936000889360008893600086E
:1001400010B5054C237833B9044B13B10448AFF311
:1001500000800123237010BD140200200000000065
:1001600024B9000808B5034B1BB103490348AFF39A
:10017000008008BD000000001802002024B900081B
:10018000034613F8012B002AFBD1181A01387047D7
:1001900001F0FF01102A2BDB10F0070F08D010F838
:1001A000013B013A8B422DD010F0070F42B3F6D13C
:1001B000F0B441EA012141EA014122F007047FF055
:1001C00000070023F0E80256083C85EA010586EAAC
:1001D000010685FA47F5A3FA87F586FA47F6A5FAE8
:1001E00087F68EB9EED1F0BC01F0FF0102F00702F4
:1001F00032B110F8013B013A83EA010313B1F8D19F
:100200000020704701387047002D06BF354603387F
:10021000073815F0010F07D1013015F4807F02BFB8
:10022000013015F4C03F0130F0BC0138704700BF09
:1002300053B94AB9002908BF00281CBF4FF0FF314D
:100240004FF0FF3000F06EB9ADF1080C6DE904CE4F
:1002500000F006F8DDF804E0DDE9022304B07047A1
:100260002DE9F047089D04468C46002B40F0838022
:100270008A42174647D9B2FA82F242B1C2F120004F
:1002800024FA00F09140974040EA010C94404FEA74
:100290001748230CBCFBF8F61FFA87FE08FB16C1B3
:1002A00043EA014306FB0EF1994209D9FB1806F116
:1002B000FF3080F01981994240F21681023E3B44A2
:1002C0005B1AA4B2B3FBF8F008FB103344EA034412
:1002D00000FB0EFEA64509D93C1900F1FF3380F062
:1002E0000581A64540F2028102383C4440EA0640BE
:1002F000A4EB0E0400261DB1D4400023C5E9004341
:100300003146BDE8F08702B9FFDEB2FA82F2002A78
:1003100050D1CB1B4FEA174E1FFA87F80126B3FBCB
:10032000FEFC210C0EFB1C3341EA034108FB0CF3DD
:100330008B4207D979180CF1FF3002D28B4200F2C0
:10034000E9808446C91AA3B2B1FBFEF00EFB10117E
:1003500043EA014408FB00F8A04507D93C1900F125
:10036000FF3302D2A04500F2D9801846A4EB08045E
:1003700040EA0C40BFE78B4209D9002D00F0B18064
:100380000026C5E9000130463146BDE8F087B3FAE2
:1003900083F6002E4AD18B4202D3824200F2B8800B
:1003A000841A61EB030101208C46002DA8D0C5E919
:1003B000004CA5E7C2F1200320FA03F6974001FAAA
:1003C00002F04FEA174ED9403043030CB1FBFEF662
:1003D0001FFA87F80EFB161143EA014306FB08F1EA
:1003E000994204FA02F409D9FB1806F1FF3C80F0A7
:1003F0008D80994240F28A80023E3B445B1A81B272
:10040000B3FBFEF00EFB103341EA034100FB08F39F
:100410008B4207D9791800F1FF3C73D28B4271D916
:1004200002383944CB1A40EA064678E7C6F1200C78
:1004300003FA06F422FA0CF31C4320FA0CF701FA33
:1004400006F34FEA144E21FA0CF11F433B0CB1FBAB
:10045000FEF91FFA84F80EFB191143EA014109FB6A
:1004600008FA8A4502FA06F200FA06F308D961187A
:1004700009F1FF3048D28A4546D9A9F10209214441
:10048000A1EB0A01BFB2B1FBFEF00EFB101147EA6F
:10049000014700FB08F8B84507D9E71900F1FF311B
:1004A0002ED2B8452CD90238274440EA0940A7EBA0
:1004B0000807A0FB02894F45C64649461AD317D004
:1004C0005DB1B3EB0E0267EB010707FA0CFCF240DB
:1004D0004CEA0202F740C5E9002700263146BDE894
:1004E000F0872E4628460BE70646E9E61846FDE665
:1004F0004345E5D2B8EB020E69EB04010138DFE7B2
:100500000846D2E760468DE78146B9E7664675E75B
:1005100030464AE7ACF1020C394413E702383C4458
:1005200024E700BF704700BF80B483B000AF78609D
:10053000064BD3F8902005497B681343C1F89030EF
:1005400000BF0C37BD465DF8047B704700080058BB
:1005500080B485B000AF78604FF0B043DA6C4FF0F4
:10056000B0417B681343CB644FF0B043DA6C7B68D7
:100570001340FB60FB6800BF1437BD465DF8047B89
:10058000704780B485B000AF78604FF0B043D3F8C7
:100590004C214FF0B0417B681343C1F84C314FF010
:1005A000B043D3F84C217B681340FB60FB6800BF6D
:1005B0001437BD465DF8047B704780B500AF03F08B
:1005C00065FA03F069FA4FF48030FFF7ADFF08F0E9
:1005D00039FA00F021F800F0C3F800BF80BD000038
:1005E000B0B588B000AF0B4B3C1D1D460FCD0FC4FE
:1005F00095E8070003C422800234130C237009F02D
:100600009BFE3B1D184608F0BCFD00BF2037BD46D1
:10061000B0BD00BF3CB9000880B588B000AF3B1D3D
:1006200000221A605A609A60DA601A610023BB8364
:1006300000237B8300233B830023FB7738E0FB7F91
:10064000444ADB0013449B79002B2BD0FB7F414AAB
:1006500052F83330404A93421BD03F4A934223D84A
:10066000B3F1904F03D03D4A934209D01CE0FB7F89
:10067000384ADB0013449A88BB8B1343BB8314E0D6
:10068000FB7F344ADB0013449A887B8B13437B83C4
:100690000BE0FB7F2F4ADB0013449A883B8B13430C
:1006A0003B8302E000BF00E000BFFB7F0133FB772C
:1006B000FB7F212BC3D90023FB600123BB600323F5
:1006C0003B61BB8B002B14D0BB8B7B600120FFF701
:1006D0003FFF0120FFF755FF3B1D19464FF09040AB
:1006E00003F0ECFEBB8B002219464FF0904004F063
:1006F00055F87B8B002B12D07B8B7B600220FFF7A1
:1007000027FF0220FFF73DFF3B1D1946134803F06A
:10071000D5FE7B8B00221946104804F03FF83B8B36
:10072000002B13D03B8B7B600420FFF711FF0420CC
:10073000FFF727FF3B1D1946074803F0BFFE3B8B21
:1007400000221946044804F029F800BF00BF2037F2
:10075000BD4680BD10C100080008004800040048E4
:1007600080B400AF00BFBD465DF8047B704780B524
:1007700000AF01F0ABFA00BF80BD80B584B000AF20
:10078000F8600B467A607B817A897B68F968002083
:1007900000F0C0FF00BF1037BD4680BD80B483B0FD
:1007A00000AF7860074BD3F8803023F0070205498B
:1007B0007B681343C1F8803000BF0C37BD465DF83D
:1007C000047B70470004005880B483B000AF7860A9
:1007D0004FF0B0439B6823F400424FF0B0417B6878
:1007E00013438B6000BF0C37BD465DF8047B704738
:1007F00080B500AF00F014F80849002000F008FDB3
:10080000FFF7DBFE0121012009F034FE00F067F85C
:1008100000F075F800F012F800BF80BD54150020FC
:1008200080B500AF4FF40040FFF7CEFF09F010FE97
:100830000420FFF7B3FF00BF80BD000080B588B083
:1008400000AF09F0C3FB114A0021102009F026FF78
:100850000F4B3B600F4B7B603B4619460E4808F040
:10086000A7FC0E4BBB600E4BFB600E4B3B6140F296
:100870003C537B6107F10803184609F0E9FC09F0D5
:100880009FFB00BF2037BD4680BD00BFE991000837
:1008900024070320A9080008BF0800083C0903201A
:1008A00030080320E801032080B483B000AF034682
:1008B000FB7100BF0C37BD465DF8047B704780B507
:1008C00082B000AF7860FFF78BFE01F039FE0021A7
:1008D000012009F0CFFD00BF0837BD4680BD80B5BF
:1008E00000AF002002F0EAFE012002F0E7FE022045
:1008F00002F0E4FE012002F01BFF00BF80BD80B5C6
:1009000000AF0121002002F047FF0121012002F089
:1009100043FF00BF80BD80B400AF00BFBD465DF89F
:10092000047B704780B582B000AF786039604FF0CB
:10093000FF3009F0CFFD00BF0837BD4680BD80B550
:1009400082B000AF78600021102009F0C9FE00BF1E
:100950000837BD4680BD80B582B000AF7860022008
:1009600009F02AFF00BF0837BD4680BD80B582B0C0
:1009700000AF7860022009F03FFF00BF0837BD4696
:1009800080BD80B582B000AF0346FB80FB88102B92
:1009900006D0102B0DDC012B05D0022B06D008E071
:1009A00001F0F4FF06E001F0F7FF03E001F0FCFFC7
:1009B00000E000BF00BF0837BD4680BD80B483B0F3
:1009C00000AF7860064BD3F8802005497B6813435D
:1009D000C1F8803000BF0C37BD465DF8047B70471E
:1009E0000008005880B483B000AF7860054B1A68E7
:1009F00004497B6813430B6000BF0C37BD465DF8AC
:100A0000047B70470008005880B483B000AF0D4BE2
:100A10009B6A9BB27B600B4B9B6A9BB23B6005E081
:100A20003B687B60074B9B6A9BB23B607A683B6884
:100A30009A42F5D13B6818460C37BD465DF8047BF9
:100A4000704700BF0028004080B485B000AF034667
:100A50000A46FB711346BB71BA791D4913465B0008
:100A60001344DB000B4415331B78FB73FB7B062B15
:100A700009D0FA7B164913465B001344DB000B4494
:100A80001433FA791A70FA79114913465B0013444A
:100A9000DB000B441533FA7B1A70FA790C491346C4
:100AA0005B001344DB000B441433BA791A70BA7933
:100AB000074913465B001344DB000B441533FA79F6
:100AC0001A7000BF1437BD465DF8047B704700BF45
:100AD000AC00002080B485B000AF03460A46FB712D
:100AE0001346BB71294B1B78DBB2BA799A4232D0DC
:100AF000BA79274913465B001344DB000B441433D7
:100B00001B78FB73FA7B224913465B001344DB001E
:100B10000B441533FA791A70FA791D4913465B00B4
:100B20001344DB000B441533BA791A70FA7918496B
:100B300013465B001344DB000B441433FA7B1A703A
:100B4000BA79134913465B001344DB000B4414339A
:100B5000FA791A7014E0FA790D4913465B001344D0
:100B6000DB000B441533BA791A70BA790849134679
:100B70005B001344DB000B441433FA791A7000BF96
:100B80001437BD465DF8047B704700BF3C01002070
:100B9000AC00002080B584B000AF0346FB714E4B23
:100BA0001B78DBB2062B18D14B4B1B78DAB24B4BC0
:100BB0001A70494AFB791370FA79494913465B0068
:100BC0001344DB000B44153306221A70454B4FF0DB
:100BD000FF321A600023FB8178E000F009F9034638
:100BE000FB81FA793E4913465B001344DB000B445A
:100BF00008331968FB89FA791944394813465B00B0
:100C00001344DB00034408331960FA79344913466E
:100C10005B001344DB000B4408331B68BB602E4BA6
:100C20001B78DBB219462E4A0B465B000B44DB00F7
:100C3000134408331B68BA689A4237D3264B1B7893
:100C40007B737A7B264913465B001344DB000B441D
:100C500015331B783B7313E07A7B214913465B0005
:100C60001344DB000B4415331B787B737A7B1C49E0
:100C700013465B001344DB000B4415331B783B73B6
:100C80003B7B062B0BD03A7B154913465B00134484
:100C9000DB000B4408331B68BA689A42DCD27A7BCB
:100CA000FB7911461846FFF7CFFE0FE00A4B1B7881
:100CB000DAB2FB7911461846FFF70CFF064B1B789A
:100CC000DAB2064B1A70044AFB791370FB89184696
:100CD0001037BD4680BD00BF3C0100203D01002013
:100CE000AC0000204001002080B485B000AF034676
:100CF0000A46FB711346BB71394B1B78DBB2FA799C
:100D00009A4211D1364B1B78DAB2364B1A70FA7907
:100D1000354913465B001344DB000B4415331B7845
:100D2000DAB22F4B1A703EE0FA792F4913465B0076
:100D30001344DB000B4414331B78FB73FA792A4904
:100D400013465B001344DB000B4415331B78BB7365
:100D5000F979FA7B24480B465B000B44DB00034423
:100D600015331B78D8B2204913465B001344DB00CF
:100D70000B44153302461A70BB7B062B13D0F9794E
:100D8000BA7B19480B465B000B44DB000344143369
:100D90001B78D8B2144913465B001344DB000B44A4
:100DA000143302461A70FA790F4913465B00134454
:100DB000DB000B440C3301221A70094B1B78DBB2A9
:100DC000062B07D1BB79002B04D1084B4FF0FF3223
:100DD0001A6000BF00BF1437BD465DF8047B704742
:100DE0003C0100203D010020AC000020400100201B
:100DF00080B582B000AF1A4B1B68B3F1FF3F26D01D
:100E0000FFF702FE7860164B1B687A689A4205D895
:100E1000134B1A687B68D31A7B600AE0114B1B885E
:100E20001A467B68D31A3B600D4B1B683A68134423
:100E30007B600D4B1B781A467B6802FB03F37B60DB
:100E40000A4B1B781A467B68D3407B6001E0002385
:100E50007B607B689BB218460837BD4680BD00BFEB
:100E6000400100203602002035020020340200201C
:100E700080B582B000AF0346FB80FB88002B08D111
:100E8000FFF7C2FD0346244A1360032002F087FFE8
:100E90003EE0FB88012B03D8204B1B78012B02D0AE
:100EA000FB88013BFB8000BF1D4B1B681B68DB6898
:100EB00003F00403002BF7D0194B1B681B68DB6899
:100EC000DAB2174B1B681B6862F49062DA60154B4C
:100ED0004FF40022DA60032002F06FFF124B5B69CF
:100EE0001B0C1B04FA88104913434B61FFF78CFD60
:100EF0000346094A13600A4B1B681B689A68084B33
:100F00001B681B6842F480629A60AFF3008000BFE8
:100F10000837BD4680BD00BF4001002034020020DC
:100F200030020020000800580028004080B584B03E
:100F300000AF474B9B6803F48063B3F5806F08D123
:100F400000BF444B1B681B68DB6803F00403002BE5
:100F5000F7D1404B1B681B689A683E4B1B681B68A7
:100F600022F480629A603C4B1B78FB73FA7B3B490E
:100F700013465B001344DB000B4408331B68BB6063
:100F8000FFF736FF0346FB80FB88BA689A4205D21A
:100F90000023BB81324B01221A704DE0FB88314A9D
:100FA000128892B213441A46BB68934206D92D4B5D
:100FB0001B88BB812A4B00221A703DE0BB689AB2A5
:100FC000FB88D31ABB81264B01221A7034E0FA7BCE
:100FD000224913465B001344DB000B4408331A68B4
:100FE000FB889A420AD2FA7B1C4913465B001344E1
:100FF000DB000B44083300221A6013E0FA7B174928
:1010000013465B001344DB000B4408331968FB886C
:10101000FA7BC91A114813465B001344DB000344F2
:1010200008331960FA7B0D4913465B001344DB005B
:101030000B4415331B78FB73FB7B062BC7D1BB8995
:101040001846FFF715FF00BF1037BD4680BD00BF33
:1010500000280040300200203C010020AC000020AD
:10106000440100203802002080B58AB000AFEFF3C1
:1010700010837B617B697B6272B600BF5F4B1B682C
:101080001B68CA225A625D4B1B681B6853225A6256
:101090005A4B1B681B689A68584B1B681B6822F4E4
:1010A00080629A60564B1B7887F8233097F823208C
:1010B000544913465B001344DB000B440C331B788C
:1010C000DBB2022B72D197F823204E4913465B0006
:1010D0001344DB000B441B68FB6197F8232049494C
:1010E00013465B001344DB000B4410331B68BB61E9
:1010F000454B1B78DBB2002B50D097F82320414999
:1011000013465B001344DB000B440D331B78DBB24A
:10111000012B26D197F8233001211846FFF7E4FD73
:101120007B6A3B613B6983F3108800BF97F82320FB
:10113000344913465B001344DB000B4404331A6844
:1011400097F823301146184600F04EFA2B4B1B68D7
:101150001B68CA225A62294B1B681B6853225A62B9
:1011600014E07B6AFB60FB6883F3108800BF97F88C
:101170002330184600F0ACF9204B1B681B68CA22CC
:101180005A621E4B1B681B6853225A6297F8233021
:10119000FA691946B86900F0AFFA25E0FFF7C6FE14
:1011A0007B6ABB60BB6883F310881DE000BF134BF4
:1011B0001B681B68DB6803F00403002BF7D00F4BA0
:1011C0001B681B68DB68DAB20C4B1B681B6862F497
:1011D0009062DA600D4B4FF40022DA607B6A7B602C
:1011E0007B6883F3108800BF044B1B681B68FF22D9
:1011F0005A6200BF2837BD4680BD00BF30020020C4
:101200003C010020AC0000204401002000080058F0
:1012100080B588B000AF03463960FB71644A3B6813
:101220001360634B1B681B68CA225A62604B1B68C1
:101230001B6853225A625F4B9B685E4A43F020034F
:1012400093605C4B9B68DBB203F00703DBB2C3F136
:101250000403DAB2584B1A70564B1B6903F4FE03B1
:101260004FF4FE023A613A6992FAA2F2FA60FA6821
:101270007A617A69002A01D1202203E07A69B2FA00
:1012800082F2D2B2D340DBB20133DAB24B4B1A70E6
:10129000484B1B699BB2C3F30E039BB201339AB256
:1012A000474B1A80464B1B88013B444A127802FB8D
:1012B00003F3A3F5A073404A1278D340BB61BB6926
:1012C0004FF6FE72934204D93E4B4FF6FF721A80DE
:1012D00003E0BB699AB23B4B1A804FF40020FFF742
:1012E00081FB4FF40020FFF769FBFB79002B43D112
:1012F000354B01221A70354B4FF0FF321A60002334
:10130000FB770CE0FA7F324913465B001344DB00A5
:101310000B440C3300221A70FB7F0133FB77FB7FF9
:10132000052BEFD92B4B06221A70214B1B681B682B
:101330009A681F4B1B681B6822F480629A601C4BE2
:101340001B681B68DB68DAB2194B1B681B6862F408
:101350009062DA60204B4FF40022DA60032002F042
:101360002CFD134B1B681B689A68114B1B681B688C
:1013700042F480429A600AE00D4B1B681B68DB68F0
:1013800003F48063002B02D0032002F008FD084B19
:101390001B681B68FF225A6200220321032002F00F
:1013A000BCFC032002F0D3FC00BF2037BD4680BD4B
:1013B00030020020002800403402002035020020C6
:1013C00036020020380200204401002040010020A5
:1013D000AC0000203C0100200008005880B48BB015
:1013E00000AFF860B9603B601346FB71002387F8DB
:1013F0002630EFF31083FB61FB693B6272B600BFDE
:1014000004E097F82630013387F8263097F8263025
:10141000052B0CD897F826202C4913465B00134463
:10142000DB000B440C331B78DBB2002BE9D197F8BF
:101430002630062B38D097F82620244913465B0027
:101440001344DB000B440C3301221A703B6ABB616E
:10145000BB6983F3108800BF97F826201B49134609
:101460005B001344DB000B441033FA681A6097F8F2
:101470002620164913465B001344DB000B440D3352
:10148000FA791A7097F82620104913465B00134426
:10149000DB000B443A681A60BB6897F826201A7084
:1014A000002387F8273008E03B6A7B617B6983F380
:1014B000108800BF012387F8273097F82730184697
:1014C0002C37BD465DF8047B704700BFAC000020A0
:1014D00080B586B000AF0346FB71EFF31083FB606D
:1014E000FB687B6172B600BF032002F03EFC384B04
:1014F0001B681B68CA225A62354B1B681B68532243
:101500005A62FA79334913465B001344DB000B44FB
:101510000C331B78DBB2022B48D1FB790021184633
:10152000FFF7E2FB2C4B1B78FB74FB7C062B35D1C1
:101530002A4B9B6803F48063B3F5806F08D100BF2A
:10154000234B1B681B68DB6803F00403002BF7D1F7
:101550001F4B1B681B689A681D4B1B681B6822F495
:1015600080629A6000BF1A4B1B681B68DB6803F03F
:101570000403002BF7D0164B1B681B68DB68DAB23C
:10158000134B1B681B6862F49062DA60144B4FF4D3
:101590000022DA60032002F010FC07E0114B1B78F8
:1015A000DBB2FA7C9A4201D0FFF7C0FC084B1B6803
:1015B0001B68FF225A62032002F0C9FB7B69BB60F3
:1015C000BB6883F3108800BF00BF1837BD4680BDDD
:1015D00030020020AC0000203C0100200028004028
:1015E000000800583D01002080B586B000AF0346DA
:1015F0003960FB71FA793C4913465B001344DB0008
:101600000B440C331B78DBB2022B03D1FB79184659
:10161000FFF75EFFEFF31083FB60FB687B6172B640
:1016200000BF032002F0A1FB304B1B681B68CA22DD
:101630005A622E4B1B681B6853225A62FA792A4958
:1016400013465B001344DB000B440C3302221A7078
:10165000FA79254913465B001344DB000B44083339
:101660003A681A60FA79204913465B001344DB009C
:101670000B4404333A681A60FB791846FFF78AFA7C
:1016800003467B821A4B1B787B741A4B1B78DBB2A8
:101690007A7C9A4202D0FFF749FC13E0FA791249AA
:1016A00013465B001344DB000B44083319687B8A44
:1016B000FA79C91A0C4813465B001344DB00034453
:1016C00008331960094B1B681B68FF225A6203200C
:1016D00002F03DFB7B69BB60BB6883F3108800BFF1
:1016E00000BF1837BD4680BDAC000020300200208E
:1016F0003C0100203D01002080B584B000AFF860BF
:101700000B467A60FB727B68984700BF1037BD4676
:1017100080BD000080B586B000AFB9607B60034635
:10172000FB731346BB810023FB750023BB75FB7B5A
:10173000002B02D0022B0FD01DE01F4A7B681360E4
:101740001E4B1F4A1A60BB891A46B9681B4805F030
:101750007BF80346FB750EE01A4A7B6813601A4B50
:101760001A4A1A60BB891A46B968174805F06CF81E
:101770000346FB7500BFFB7D032B17D801A252F86F
:1017800023F000BF951700089B170008A117000859
:10179000A71700080023BB7509E00123BB7506E00D
:1017A0000223BB7503E00323BB7500E000BFBB7DD4
:1017B00018461837BD4680BD94130020C41400207D
:1017C0000038014088130020D4130020008000401E
:1017D00080B582B000AF78607B681B680F4A934287
:1017E0000AD00F4A93420FD10E4B1B68002B0DD02D
:1017F0000C4B1B68984709E00B4B1B68002B07D06C
:10180000094B1B68984703E000BF02E000BF00E0FF
:1018100000BF00BF0837BD4680BD00BF008000404C
:1018200000380140941300208813002080B483B056
:1018300000AF7860074BD3F880207B68DB43054915
:101840001340C1F8803000BF0C37BD465DF8047B03
:10185000704700BF0008005880B483B000AF7860C4
:10186000074BD3F890207B68DB4305491340C1F850
:10187000903000BF0C37BD465DF8047B704700BF59
:101880000008005880B483B000AF78604FF0B043D8
:101890000A4AC3F89C204FF0B043D3F89C3023F49D
:1018A0007C527B681B024FF0B0411343C1F89C305F
:1018B00000BF0C37BD465DF8047B7047FECAFECA08
:1018C00080B483B000AF78604FF0B043D3F890306D
:1018D00023F018024FF0B0417B681343C1F89030F9
:1018E00000BF0C37BD465DF8047B704780B400AF85
:1018F0004FF0B043D3F890304FF0B04243F4803310
:10190000C2F8903000BFBD465DF8047B704780B4DC
:1019100000AF4FF0B043D3F890304FF0B04223F413
:101920008033C2F8903000BFBD465DF8047B70473D
:1019300080B400AF4FF0B043D3F8943003F080632D
:10194000B3F1806F01D1012300E000231846BD46AA
:101950005DF8047B704780B400AF4FF0B043D3F81C
:10196000943003F08053B3F1805F01D1012300E094
:1019700000231846BD465DF8047B704780B485B0EF
:1019800000AF78604FF0B0439A6C4FF0B0417B6885
:1019900013438B644FF0B0439A6C7B681340FB6039
:1019A000FB6800BF1437BD465DF8047B704780B408
:1019B00085B000AF78604FF0B043DA6C4FF0B041C3
:1019C0007B681343CB644FF0B043DA6C7B68134001
:1019D000FB60FB6800BF1437BD465DF8047B7047B1
:1019E00080B485B000AF78604FF0B0431A6D4FF00F
:1019F000B0417B6813430B654FF0B0431A6D7B68B1
:101A00001340FB60FB6800BF1437BD465DF8047BE4
:101A1000704780B483B000AF786039607B685A68E3
:101A20003B681B041A437B685A6000BF0C37BD46F5
:101A30005DF8047B704780B483B000AF7860396094
:101A40007B685A683B681A437B685A6000BF0C3752
:101A5000BD465DF8047B704780B483B000AF78600A
:101A600039607B685A693B681B041A437B685A617A
:101A700000BF0C37BD465DF8047B704780B483B06F
:101A800000AF786039607B685A693B681A437B68AD
:101A90005A6100BF0C37BD465DF8047B704780B4C7
:101AA00083B000AF786039607B683A689A6000BFA5
:101AB0000C37BD465DF8047B704780B483B000AF3F
:101AC000786039607B683A689A6100BF0C37BD4620
:101AD0005DF8047B7047000080B400AF054B1B69C4
:101AE000044A23F00403136100BFBD465DF8047B84
:101AF000704700BF00ED00E080B483B000AF7860B5
:101B00007B68FF225A6200BF0C37BD465DF8047B3C
:101B1000704780B483B000AF78607B68CA225A6295
:101B20007B6853225A6200BF0C37BD465DF8047BC8
:101B3000704780B483B000AF786039607B689B6881
:101B400023F007023B681A437B689A6000BF0C379A
:101B5000BD465DF8047B704780B500AF104B4FF475
:101B600000421A6101F000FF00F07FF900F069F90E
:101B700000F018F800F096F800F05CF900F0B7F902
:101B800000F04BF900F02CF900F0EEF800F0F4F85A
:101B9000FEF72EFE4FF0FF3008F09CFCFAE700BF86
:101BA0000040005880B5AEB000AF07F17003482286
:101BB0000021184608F0E2FE07F1540300221A60E3
:101BC0005A609A60DA601A615A619A613B1D50222C
:101BD0000021184608F0D2FE02F0BAFE0020FFF7FE
:101BE0006FFE2F4B1B6823F4C0632D4A43F4007330
:101BF00013602B4B1B6803F4C0633B603B680723F7
:101C00003B674FF480337B670123BB674FF48073DE
:101C1000FB674023C7F880300023C7F89C3007F1EA
:101C20007003184603F028FA0346002B01D000F099
:101C30008FF96F237B650223BB650023FB650023BF
:101C40003B6600237B660023BB660023FB6607F12F
:101C500054030121184603F09BFD0346002B01D0DD
:101C600000F076F943F603037B600023FB61002359
:101C70003B624FF480737B644FF48043BB64022368
:101C8000FB6410233B653B1D184604F0C2F9034674
:101C9000002B01D000F05CF900BFB837BD4680BD15
:101CA0000004005880B500AF064B074A1A6005488B
:101CB00002F0C8FD0346002B01D000F049F900BF37
:101CC00080BD00BF98130020000C005880B500AF05
:101CD000234B244A1A60224B4FF4E1325A60204BC6
:101CE00000229A601E4B0022DA601D4B00221A610E
:101CF0001B4B0C225A611A4B00229A61184B4FF46D
:101D00000042DA61164B00221A62154B00225A6219
:101D1000134B00229A62124804F046FD0346002B42
:101D200001D000F015F900210D4805F023FD034610
:101D3000002B01D000F00CF90021094805F058FDF6
:101D40000346002B01D000F003F9054805F0D9FC4B
:101D50000346002B01D000F0FBF800BF80BD00BFA0
:101D6000C41400200038014080B400AF00BFBD465D
:101D70005DF8047B7047000080B500AF164B174A32
:101D80001A60154B00225A60134B0F229A60124BB7
:101D900047F6FF72DA60104B00221A610E4B0022E8
:101DA0009A610D4B0022DA610B4B00225A610A48FE
:101DB00004F0B6FB0346002B01D000F0C9F8074839
:101DC000FFF7A7FE00210548FFF7B3FE0348FFF722
:101DD00093FE00BF80BD00BF5415002000280040C6
:101DE00080B500AF0420FFF7C9FD0120FFF7C6FD55
:101DF0000220FFF7C3FD00220F210E2001F08DFF0E
:101E00000E2001F0A4FF00220F213A2001F085FFEF
:101E10003A2001F09CFF00BF80BD80B500AF0420D8
:101E2000FFF7C5FD0120FFF7C2FD0220FFF7BFFD50
:101E300000BF80BD80B400AF00BFBD465DF8047B2D
:101E4000704780B582B000AF002007F02FF87860AF
:101E50007B68002B05D07B689B791846FFF712FD45
:101E600000BF00BF0837BD4680BD80B500AF00F0A1
:101E700027F800F003F800BF80BD000080B500AF78
:101E80004FF48010FFF7ACFD3F210C48FFF707FE31
:101E90003F210A48FFF711FE3F210848FFF7B9FD2F
:101EA0003F210648FFF7D8FD3F210448FFF7C3FD57
:101EB0003F210248FFF7E2FD00BF80BD000C005843
:101EC00080B500AFFFF734FD0346002B0DD0FFF7C0
:101ED00042FD0346002B08D102F03AFD02F038FD26
:101EE000FFF704FDFFF713FD00BF00BF80BD80B505
:101EF00000AF4FF0FF30FFF799FC6FF05000FFF795
:101F0000ABFC00BF80BD80B584B000AF786001F04D
:101F100099FDB8607B68FB60FB68B3F1FF3F0AD0B6
:101F200001F0A8FD03461A46FB681344FB6002E07B
:101F3000FFF7D2FD30BF01F085FD0246BB68D31A22
:101F4000FA689A42F4D800BF00BF1037BD4680BD82
:101F500080B400AF00BFBD465DF8047B704780B41D
:101F600083B000AF78604FF0B043D3F8903023F4E3
:101F700040724FF0B0417B681343C1F8903000BF0E
:101F80000C37BD465DF8047B704780B400AF4FF05E
:101F9000B043D3F890304FF0B04243F40043C2F85E
:101FA000903000BFBD465DF8047B704780B485B0BB
:101FB00000AF78604FF0B043DA6C4FF0B0417B680F
:101FC0001343CB644FF0B043DA6C7B681340FB6083
:101FD000FB6800BF1437BD465DF8047B704780B4D2
:101FE00085B000AF78604FF0B0431A6D4FF0B0414C
:101FF0007B6813430B654FF0B0431A6D7B68134049
:10200000FB60FB6800BF1437BD465DF8047B70477A
:1020100080B485B000AF78604FF0B0439A6D4FF058
:10202000B0417B6813438B654FF0B0439A6D7B687A
:102030001340FB60FB6800BF1437BD465DF8047BAE
:10204000704780B485B000AF78604FF0B043DA6D70
:102050004FF0B0417B681343CB654FF0B043DA6D6E
:102060007B681340FB60FB6800BF1437BD465DF81A
:10207000047B704780B485B000AF78604FF0B04308
:102080001A6E4FF0B0417B6813430B664FF0B043BC
:102090001A6E7B681340FB60FB6800BF1437BD46B7
:1020A0005DF8047B704780B500AF4FF40020FFF768
:1020B00096FF002200212E2001F02FFE2E2001F09D
:1020C00046FE00BF80BD000080B582B000AF7860E2
:1020D0007B681B680D4A934213D14FF48010FFF7C1
:1020E0007EFF002200212C2001F017FE2C2001F0A1
:1020F0002EFE002200212D2001F00FFE2D2001F0E8
:1021000026FE00BF0837BD4680BD00BF000C00584A
:1021100080B58CB000AF786007F11C0300221A6014
:102120005A609A60DA601A617B681B68594A934268
:102130005ED10120FFF785FF0120FFF737FF0C2359
:10214000FB6102233B6200237B620323BB62082303
:10215000FB6207F11C0319464FF0904002F0AEF904
:102160004D4B4E4A1A604C4B11225A604A4B10227A
:102170009A60494B0022DA60474B80221A61464B35
:1021800000225A61444B00229A61434B0022DA61DB
:10219000414B00221A62404801F01EFE0346002B0C
:1021A00001D0FFF7D5FE4FF08853FB6000233B6161
:1021B00000233B7500237B750123BB6107F10C03F2
:1021C0001946354802F03AF90346002B01D0FFF7D3
:1021D000BFFE7B68304A9A672F4A7B689362002271
:1021E0000021252001F099FD252001F0B0FD4CE0F3
:1021F0007B681B682A4A934247D14FF48040FFF71F
:1022000039FF0220FFF7D2FEC023FB6102233B62AD
:1022100001237B620323BB620723FB6207F11C03DC
:102220001946204802F04AF91F4B204A1A601E4BFB
:102230000F225A601C4B10229A601B4B0022DA605E
:10224000194B80221A61184B00225A61164B00224A
:102250009A61154B0022DA61134B00221A62124870
:1022600001F0BAFD0346002B01D0FFF771FE7B6839
:102270000D4A9A670C4A7B68936200220021242051
:1022800001F04BFD242001F062FD00BF3037BD4658
:1022900080BD00BF0080004078150020440002404F
:1022A0000038014000040048641400204404024047
:1022B00080B582B000AF78607B681B680B4A9342A0
:1022C00010D102F045FB02F043FB4FF48070FFF7A2
:1022D00046FEFFF75AFE4FF48060FFF799FE7868DC
:1022E00004F00CFA00BF0837BD4680BD002800404E
:1022F00080B400AF00BFBD465DF8047B704780B47A
:1023000000AFFEE780B400AFFEE780B400AFFEE7A9
:1023100080B400AFFEE780B400AF00BFBD465DF8FB
:10232000047B704780B400AF00BFBD465DF8047BFE
:10233000704780B400AF00BFBD465DF8047B7047B6
:1023400080B500AF01F06AFB00BF80BD80B500AF73
:10235000024801F022FF00BF80BD00BF78150020B9
:1023600080B500AF024804F0EFFA00BF80BD00BFA7
:10237000C414002080B500AF024804F0E5FA00BFA5
:1023800080BD00BFD413002080B500AF00F0F2FF85
:1023900000BF80BD80B500AF01F024F800BF80BD54
:1023A00080B500AF02F02AFA00BF80BD80B500AF53
:1023B000024801F0F2FE00BF80BD00BF641400209F
:1023C00080B500AF102002F001FA00BF80BD80B5DB
:1023D00000AF012002F0FAF900BF80BD80B500AF68
:1023E000FEF742FE00BF80BD80B586B000AFF8604A
:1023F000B9607A6000237B610AE0AFF30080014698
:10240000BB685A1CBA60CAB21A707B6901337B611F
:102410007A697B689A42F0DB7B6818461837BD46BC
:1024200080BD80B483B000AF78604FF0FF331846B2
:102430000C37BD465DF8047B704780B483B000AFB5
:10244000786039603B684FF400525A6000231846A8
:102450000C37BD465DF8047B704780B483B000AF95
:102460007860012318460C37BD465DF8047B704741
:1024700080B485B000AFF860B9607A600023184678
:102480001437BD465DF8047B7047000080B586B008
:1024900000AF7860144A154BD31A7B617B693B61AE
:1024A000134B1B68002B02D1114B124A1A60104BC0
:1024B0001A687B6813443A699A4207D208F026FAF0
:1024C00003460C221A604FF0FF3309E0084B1B68EB
:1024D000FB60074B1A687B681344054A1360FB686E
:1024E00018461837BD4680BD0000032000100000CC
:1024F0003C020020F815002080B400AF034B1B689D
:102500001846BD465DF8047B704700BF8075FF1F0D
:1025100080B400AF034B1B68DBB21846BD465DF8C4
:10252000047B70478475FF1F80B400AF034B1B68AA
:102530001B0A1846BD465DF8047B70478475FF1F73
:10254000B0B58CB000AF2F4B3C461D460FCD0FC42D
:102550000FCD0FC495E80F0084E80F0000F02CFAAF
:102560000121022007F086FF274A0021082008F0F9
:1025700095F83B46184606F0EDFD0346002B01D0CA
:10258000FFF7E6FC00F02EFA07F076FC1F4B002266
:1025900083F880201D4B4FF6FF72DA821C4A00211F
:1025A000012008F07BF81B4A0021042008F076F88F
:1025B000062006F04EF8184B00221A70174B012225
:1025C0001A7000F071FD164B002216490020FEF72C
:1025D00005FF154B002215490020FEF7FFFE0B4BAF
:1025E00000225A76094B00221A76114B80221A805B
:1025F000104BA0221A80012000F0B6FA00BF30373D
:10260000BD46B0BD58B90008798B000848010020CC
:102610003D2D0008852E0008DD150020DC1500206A
:102620009D2D0008C9010020AD2D0008CA01002021
:10263000CC010020CE01002080B58CB000AF7860C6
:10264000422387F82F307B680133BB62BB6A1B785B
:10265000FF2B00F0B680FF2B00F35881052B02D032
:102660003E2B23D052E1BB6A02333B613B69B3F896
:1026700001309AB2A94BDB8A9A4209D1A74B0022BA
:10268000DA82A64B002283F88020A54808F004FADD
:10269000012000F069FAA34B01221A709F4BDA8ADD
:1026A000A04B5A809F4800F0EBFC32E1BB6A02333A
:1026B000FB61FB691B780C2B09D00C2B7FDC012BF9
:1026C00043D0032B7BD1984808F0E6F978E097488F
:1026D00008F0E2F9FB690133BB61BB691B78002B91
:1026E00003D1934808F0D8F902E0924808F0D4F9F1
:1026F0008A4BDB8A07F10E0207F10F01184606F03C
:1027000016F8034687F82F3097F82F30002B18D192
:10271000894808F0C1F9FB7B022B0AD1BB7B022B55
:1027200007D1FB7B1946BB7B1A46844808F02EF97B
:1027300046E0FB7B1946BB7B1A46804808F026F929
:102740003EE07F4808F0A8F93AE0FB6901337B617D
:10275000724B93F881301846FEF7BAFE7B69B3F8E6
:1027600001309BB21946774808F010F96B4B93F88B
:102770008030042B04D1694B062283F8802003E0CB
:10278000664B052283F880207B69B3F801309AB24A
:10279000624BDA82634B00221A70604BDA8A614B1B
:1027A0005A80604800F06CFC5E4B00221A705B4B54
:1027B000DA8A5C4B5A805B4800F062FC00E000BFA4
:1027C000A7E0BB6A02337B627B6A1B889BB2B3F5CE
:1027D000006F00F08780B3F5006F00F39980042B41
:1027E00000F08880042BC0F2938040F20A429342AA
:1027F00000F38E80B3F5806FC0F28A80A3F580630A
:102800000A2B00F2858001A252F823F03928000833
:10281000BB280008412800084F2800085728000856
:102820005F28000811290008ED2800087728000813
:10283000872800087F280008434808F02DF964E045
:10284000424808F029F9424808F026F95DE041487D
:1028500008F022F959E0404808F01EF955E03F48D9
:1028600008F01AF92D4BDB8A184605F04CFB3C4862
:1028700008F012F949E03B4808F00EF945E03A4803
:1028800008F00AF941E07B6A0233D3F802301946B6
:10289000364808F07BF87B6A0233D3F802301946D9
:1028A000334808F073F81D4BDB8A0121184605F008
:1028B00074FB304808F0F0F827E07B6A02333B6293
:1028C0003B6A9B7819462C4808F060F83B6A9B7875
:1028D000002B03D1294808F0DFF816E0284808F05B
:1028E000DBF812E0274B01221A700EE0264808F0B0
:1028F000D3F80AE0012000F01BFF084B93F8823068
:102900000A211846FEF770FE00BF01E000BF00E09C
:1029100000BF012318463037BD4680BD4801002066
:1029200088B90008D8150020B0B90008DCB9000843
:10293000F8B900081CBA000844BA000858BA0008E0
:1029400074BA00088CBA0008D0BA000800BB0008AE
:1029500028BB000848BB000874BB0008A8BB0008DF
:10296000CCBB0008E8BB000814BC000844BC00084D
:102970005CBC000870BC0008ACBC00080CBD0008C2
:1029800020BD0008DC15002034BD000880B500AF74
:1029900000F0B2FB00BF80BD80B500AF0021042075
:1029A00007F09EFE00BF80BD80B400AF00BFBD46F3
:1029B0005DF8047B7047000080B582B000AF064B25
:1029C0003B60064B7B603B461946054806F0B8F86D
:1029D00000BF0837BD4680BD280003202D2F00080A
:1029E000F52E0008F0B58FB006AF00233B8005F050
:1029F0007AFE00F05FF9F861FA690621002005F01F
:102A000068FDFB695A79524B1A72FB691A79504B6F
:102A10005A72FB69DA784E4B9A72FB699A784C4B82
:102A2000DA72FB695A784A4B1A73FB691A78484B79
:102A30005A734EF66E53BB60FFF75EFD03467B6034
:102A40003B1D1A4606212E2005F043FD414A102168
:102A5000182005F03EFD404A1021082005F039FD00
:102A60001821012005F09EFD05F0EEFA0023FB760B
:102A7000FB7E43F00103FB76FB7E002B1ED0374B21
:102A80007B6107F11202F87E07F10E03019307F153
:102A90001003009313460722002105F029F97C8AD0
:102AA0003D8A7869FDF76CFB0346DAB27B690093D7
:102AB000134600222946204605F084FC788AF989CD
:102AC0003B4600930223002205F07CFC02220221F7
:102AD000002005F094FE224B01221A70204B1B7837
:102AE000184605F013F81E4B01225A701C4B0822A1
:102AF0001A711B4B10225A71194B0022DA70184BB5
:102B0000184A9A60164B01229A70154B9C78144B08
:102B10005D78134B1B79124A52791149C9781048D4
:102B2000806800260496039002910192009300238E
:102B300001222946204605F033F8094B9B78002BEB
:102B400001D005F0BCF900BF2437BD46F0BD00BF81
:102B50000C00002028C2000838C200085CBD000834
:102B60004801002007B2010080B58CB008AF0346D1
:102B7000FB714223FB72FB79012B06D13F4B1B8873
:102B8000FB813F4B1B88BB8105E04FF4C863FB8191
:102B90004FF47A63BB813B4B93F881301846FEF7C4
:102BA00097FC384B93F880301946374807F0EEFE13
:102BB000FB79022B19D1334B93F88030012B04D0D1
:102BC000304B93F88030022B0FD104F09DFE03466A
:102BD000FB72FB7A002B03D12C4807F05DFF04E069
:102BE000FB7A19462A4807F0D1FE264AFB7982F87B
:102BF0008030244B1B7EBA89F98900200690002082
:102C00000590244804900393234B029308230193D7
:102C1000002300930023002004F09AFE0346FB7279
:102C20001E490E2005F0EFF80346FB72FB7A002BDD
:102C300011D1FB79012B0AD1194807F02DFF114B57
:102C400093F8813017491846FEF7CEFC12E016487B
:102C500007F022FF0EE0FB79012B05D1FB7A194624
:102C6000124807F093FE05E0FB7A1946104807F07A
:102C70008DFE00BF1037BD4680BD00BFCC010020D7
:102C8000CE0100204801002064BD000880BD00087E
:102C9000A4BD00086101002048C200080C0000200B
:102CA000CCBD000846E00100F4BD000820BE0008CD
:102CB00050BE000880B586B000AFFFF71DFC38613C
:102CC0003B69B3F1FF3F23D0FFF72EFCB860FFF75D
:102CD0001FFC78603B69DAB2164B1A703B691B0A1D
:102CE000DAB2144B5A707B68DAB2124B9A70BB6836
:102CF000DAB2104BDA70BB681B0ADAB20D4B1A71EC
:102D0000BB681B0CDAB20B4B5A710A4B7B610BE0B0
:102D1000002006F0CBF8F860FB68002B02D0FB68BF
:102D20007B6101E0044B7B617B6918461837BD4627
:102D300080BD00BF4002002020C2000880B582B0E4
:102D400000AF012000F00EFD104B93F88030052BF2
:102D500017D00023FB7104F0D7FD0346FB710B4B2A
:102D6000002283F88020FB79002B06D1084807F069
:102D70000DFE084807F00AFE03E0074807F006FECC
:102D800000BF00BF0837BD4680BD00BF480100201E
:102D900084BE00088CBE0008A8BE000880B500AF45
:102DA0000021012007F09CFC00BF80BD80B500AF72
:102DB000012000F0D7FC00BF80BD000090B589B0B5
:102DC00002AF0346FB80294B1B78012B49D1274BCF
:102DD00000221A70264B1B780133002B03F00103ED
:102DE000B8BF5B42DAB2224B1A70214B1B78214AE2
:102DF0009B00134493ED007AF7EE046AC7EE267A3F
:102E0000FDEEE77A17EE903AFB82194B1B78194AD0
:102E10009B00134493ED007AF7EE046AC7EE267A1E
:102E2000FDEEE77A17EE903ABB8200237B824FF4E7
:102E3000FA733B82104BD88A7C8ABA8AF98A3B8A19
:102E40000093234605F042FD0346FB73FB7B002BFA
:102E500003D10A4807F09AFD03E0094807F096FD00
:102E600000BF00BF1C37BD4690BD00BFDC15002071
:102E7000DD1500200400002048010020CCBE000821
:102E8000FCBE000880B500AF084B93F88030012BE2
:102E90000AD0064B93F88030002B05D0034BDB8A19
:102EA0001846FFF78BFF00BF00BF80BD4801002020
:102EB00080B582B000AF78600021082007F010FCD8
:102EC00000BF0837BD4680BD80B582B000AF7860D6
:102ED000012007F071FC00BF0837BD4680BD80B5FA
:102EE00082B000AF7860012007F086FC00BF083791
:102EF000BD4680BD80B584B000AF78607B68FB6064
:102F0000FB685B680833184607F006F80346FB7257
:102F1000FB7A002B03D0FB6801221A7002E0FB68E9
:102F200000221A7000BF1037BD4680BD80B584B046
:102F300000AF0346FB71FB79002B02D0012B06D0BA
:102F40000BE00F23FB60F86807F0F6FB05E00F23AA
:102F5000FB60F86807F010FC00BF00BF1037BD46EB
:102F600080BD000080B582B000AF78607B681B78C0
:102F7000032B1AD0032B6BDC002B02D0012B0AD0C1
:102F800066E0374B01221A70364807F085FD364857
:102F900007F0FCFC5FE0324B00221A70334807F068
:102FA0007BFD314807F0F2FC55E07B685B681B78DD
:102FB000002B23D17B685B6801331B78012B0BD17D
:102FC000002000F0B5FB2A4807F066FD264807F010
:102FD000DDFC234B01229A707B685B6801331B7810
:102FE000002B0BD1002000F0BDFB224807F054FD60
:102FF0001D4807F0CBFC1A4B00229A707B685B6877
:103000001B78012B26D17B685B6801331B78012B71
:103010000BD1002000F08CFB174807F03DFD124853
:1030200007F0B4FC0E4B01229A707B685B68013399
:103030001B78002B0ED1002000F094FB0F4807F006
:103040002BFD094807F0A2FC054B00229A7001E015
:1030500000BF00E000BF00BF0837BD4680BD00BF15
:10306000D001002024BF000858BF00085CBF000842
:1030700090BF0008B8BF0008E0BF000808C0000803
:1030800080B582B000AF78607B681B78002B05D0DC
:10309000012B00D003E000F019F800E000BF00BFF2
:1030A0000837BD4680BD000080B500AF054A00214D
:1030B000022007F0F3FA044B00221A7000F006F821
:1030C00000BF80BD09310008D001002080B500AFED
:1030D000002000F047FB074B01225A70054B0022ED
:1030E0009A70044B0122DA70024B00221A7100BF61
:1030F00080BD00BFD001002080B500AF00210220BC
:1031000007F0EEFA00BF80BD80B500AF0F4B1B7912
:10311000002B03D10D4B01221A7102E00B4B002250
:103120001A710A4B1B78002B0BD0094807F02EFCB4
:10313000084807F02BFC08494FF6426005F0E8FF0D
:1031400003E0064807F022FC00BF80BDD00100204C
:1031500030C0000858BF0008D301002070C000082C
:1031600080B400AF054BDB68044A43F40043D360EE
:1031700000BFBD465DF8047B704700BF00040058E7
:1031800080B483B000AF7860064BD3F8D4200549F3
:103190007B681343C1F8D43000BF0C37BD465DF8DF
:1031A000047B70470008005880B483B000AF78609B
:1031B000054B1A6A04497B6813430B6200BF0C3746
:1031C000BD465DF8047B70470008005880B485B0A8
:1031D00000AF78604FF0B0431A6D4FF0B0417B689C
:1031E00013430B654FF0B0431A6D7B681340FB60CF
:1031F000FB6800BF1437BD465DF8047B704780B4A0
:1032000085B000AF78604FF0B043D3F850214FF055
:10321000B0417B681343C1F850314FF0B043D3F84D
:1032200050217B681340FB60FB6800BF1437BD462C
:103230005DF8047B704780B483B000AF78607B6832
:103240001B6843F480327B681A6000BF0C37BD46B0
:103250005DF8047B704780B483B000AF78607B6812
:103260001B6843F001027B681A6000BF0C37BD4643
:103270005DF8047B704780B483B000AF786039603C
:103280007B685A683B681B04DB431A407B685A60C2
:1032900000BF0C37BD465DF8047B704780B483B037
:1032A00000AF786039607B685A683B681B041A433A
:1032B0007B685A6000BF0C37BD465DF8047B7047E1
:1032C00080B483B000AF786039607B685A683B682F
:1032D000DB431A407B685A6000BF0C37BD465DF87F
:1032E000047B704780B483B000AF786039607B683E
:1032F0003A689A6000BF0C37BD465DF8047B7047A2
:1033000080B483B000AF786039603B681A047B6892
:103310009A6000BF0C37BD465DF8047B704780B4EF
:1033200083B000AF786039607B68DA683B6813402F
:103330003A689A4201D1012300E0002318460C3775
:10334000BD465DF8047B704780B483B000AF786001
:1033500039607B68DA693B6813403A689A4201D168
:10336000012300E0002318460C37BD465DF8047BBE
:103370007047000080B500AF02211948FFF7E4FF55
:103380000346002B09D0164B5B68DB4303F00203B6
:10339000002B02D000F0EAF81FE001211048FFF7EF
:1033A000D3FF0346002B08D00D4B5B6803F00103ED
:1033B000002B02D100F09EF80FE008210848FFF72B
:1033C000C3FF0346002B09D0054B5B68DB4303F0CA
:1033D0000803002B02D000F015F900BF00BF80BD2C
:1033E000000C005880B500AF02212248FFF797FF7C
:1033F0000346002B09D11F4B5B68DB4303F400330A
:10340000002B02D000F0A6F831E002211948FFF7A6
:1034100086FF0346002B09D1164B5B68DB4303F4A0
:103420000033002B02D000F095F820E0082111486D
:10343000FFF775FF0346002B09D10E4B5B68DB439A
:1034400003F40023002B02D000F0BEF80FE020218F
:103450000848FFF764FF0346002B09D1054B5B6862
:10346000DB4303F40013002B02D000F04FF800BF41
:1034700000BF80BD000C005880B500AF4FF4801035
:10348000FFF7BDFE4FF40070FFF77AFE4FF40070B7
:10349000FFF78AFE40BF20BFFFF762FE00BF80BD7E
:1034A00080B500AF4FF48010FFF790FE0648FFF79D
:1034B000D2FE0548FFF7BFFE2C2000F048FC2D206F
:1034C00000F045FC00BF80BD000C005880B500AF87
:1034D00001210248FFF7F4FE00BF80BD000C005838
:1034E00080B500AF01210248FFF70AFF00BF80BD91
:1034F000000C005880B500AF06F0F2FD0121024833
:10350000FFF7F0FE00BF80BD000C005880B500AF93
:1035100020210348FFF7C2FE06F012FE00BF80BD67
:10352000000C005880B500AF02210248FFF7C8FE2A
:1035300000BF80BD000C005880B500AF02210448D8
:10354000FFF7DEFE02210248FFF795FE00BF80BDB7
:10355000000C005880B500AF02210348FFF79EFE23
:1035600006F03EFE00BF80BD000C005880B500AFE5
:1035700006F04CFE02210248FFF7B4FE00BF80BDFA
:10358000000C005880B582B000AF786008210C486C
:10359000FFF7C5FE0346002B07D00A4A7B6813607D
:1035A00008210748FFF767FE06E07B689847082177
:1035B0000348FFF7A5FE00BF0837BD4680BD00BF2A
:1035C000000C00584802002080B500AF08210648D2
:1035D000FFF764FE054B1B68984708210248FFF778
:1035E0008FFE00BF80BD00BF000C005848020020C5
:1035F00080B500AF08210248FFF762FE00BF80BD22
:10360000000C005880B500AF06F0A8FE0821024863
:10361000FFF768FE00BF80BD000C0058D458C450AE
:103620000433C4188C42F9D37047036004308842D5
:10363000FBD370470C4885460C480D490D4A0023C2
:10364000FFF7EFFF0C480D490023FFF7F0FF0C4890
:103650000C490023FFF7EBFF00F010F907F05CF9CD
:10366000FEF77AFAFEE700000000032004000020C5
:10367000AC000020E4C3000814020020F415002070
:10368000E0010320570A0320FEE780B485B000AFB5
:1036900078604FF0B043DA6C4FF0B0417B68134371
:1036A000CB644FF0B043DA6C7B681340FB60FB687F
:1036B00000BF1437BD465DF8047B704780B588B005
:1036C00000AF0346FB7107F10C0300221A605A6039
:1036D0009A60DA601A610220FFF7D7FFFB79124A7D
:1036E00032F81330FB6001233B6100237B6102232E
:1036F000BB61FB790D4A52F8233007F10C021146E9
:10370000184600F0DBFEFB79084A52F82300FB79EB
:10371000054A32F813300022194601F03FF800BF85
:103720002037BD4680BD00BF50C200081C000020ED
:1037300080B582B000AF0346FB71FB79074A52F8AF
:103740002300FB79064A32F813300122194601F0B2
:1037500025F800BF0837BD4680BD00BF1C00002013
:1037600050C2000880B582B000AF0346FB71FB7900
:10377000074A52F82300FB79064A32F81330002238
:10378000194601F00BF800BF0837BD4680BD00BFE9
:103790001C00002050C2000880B588B000AF03466E
:1037A0000A46FB711346BB7107F10C0300221A6035
:1037B0005A609A60DA601A61FB79002B03D1042009
:1037C000FFF763FF0CE0FB79012B03D10820FFF723
:1037D0005CFF05E0FB79022B02D10820FFF755FFC3
:1037E000BB79002B17D1FB79204A32F81330FB60EC
:1037F00000233B6101237B610223BB61FB791C4AEF
:1038000052F8233007F10C021146184600F056FE1C
:103810000120FEF778FBBB79012B22D1FB79134AFB
:1038200032F81330FB6001237B61124B3B61FB7963
:103830000F4A52F8233007F10C021146184600F0E7
:103840003DFEFB790C4AD35C5BB200220F21184687
:1038500000F063FAFB79084AD35C5BB2184600F0CB
:1038600076FA00BF2037BD4680BD00BF58C20008B1
:10387000280000200000211060C2000880B400AFC2
:10388000264B00229A60254BD3F88830234A43F414
:103890007003C2F888304FF0B0431B684FF0B0425D
:1038A00043F0010313604FF0B0434FF4E0229A60FD
:1038B0004FF0B0431A684FF0B041194B13400B6002
:1038C0004FF0B043D3F894304FF0B04223F00503EB
:1038D000C2F894304FF0B043D3F898304FF0B04274
:1038E00023F00103C2F898304FF0B0430D4ADA607C
:1038F0004FF0B0430B4A1A614FF0B0431B684FF0D2
:10390000B04223F4802313604FF0B04300229A6149
:1039100000BFBD465DF8047B704700BF00ED00E0CE
:10392000FBFEF6FA0010042280B400AF054B5B6882
:10393000044A43F00103536000BFBD465DF8047BB9
:10394000704700BF002004E080B400AF054B5B6807
:10395000044A43F00203536000BFBD465DF8047B98
:10396000704700BF002004E080B582B000AF0023A4
:10397000FB710C4B1B680B4A43F4807313600320EC
:1039800000F0C0F9002000F00FF80346002B02D031
:103990000123FB7101E0FEF786FBFB79184608372F
:1039A000BD4680BD0040005880B584B000AF78604F
:1039B0000023FB73174B1B78002B24D002F094F8E4
:1039C0000246144B1B7819464FF47A73B3FBF1F39C
:1039D000B2FBF3F3184600F0D6F90346002B0FD1E3
:1039E0007B680F2B09D8002279684FF0FF3000F078
:1039F00094F9094A7B68136007E00123FB7304E034
:103A00000123FB7301E00123FB73FB7B1846103796
:103A1000BD4680BD3C0000203800002080B400AFCF
:103A2000064B1B781A46064B1B681344044A136066
:103A300000BFBD465DF8047B704700BF3C0000201E
:103A4000E015002080B400AF034B1B681846BD464C
:103A50005DF8047B704700BFE015002080B400AF24
:103A6000034B1B681846BD465DF8047B704700BFDA
:103A70003800002080B400AF034B1B781846BD46C9
:103A80005DF8047B704700BF3C00002080B500AFAC
:103A9000FFF74AFF00BF80BD80B500AFFFF754FFBE
:103AA00000BF80BD80B485B000AF78607B6803F054
:103AB0000703FB600C4BDB68BB60BA684FF6FF0383
:103AC0001340BB60FB681A02BB68134343F0BF633B
:103AD00043F40033BB60044ABB68D36000BF1437B3
:103AE000BD465DF8047B704700ED00E080B400AF98
:103AF000044BDB681B0A03F007031846BD465DF85C
:103B0000047B704700ED00E080B483B000AF034653
:103B1000FB7197F90730002B0BDBFB7903F01F02D9
:103B2000074997F907305B09012000FA02F241F8D2
:103B3000232000BF0C37BD465DF8047B704700BFF3
:103B400000E100E080B483B000AF0346FB7197F959
:103B50000730002B12DBFB7903F01F020A4997F9AB
:103B600007305B09012000FA02F2203341F82320DC
:103B7000BFF34F8F00BFBFF36F8F00BF00BF0C3785
:103B8000BD465DF8047B704700E100E080B483B07F
:103B900000AF0346FB7197F90730002B0CDBFB7974
:103BA00003F01F02074997F907305B09012000FA6B
:103BB00002F2403341F8232000BF0C37BD465DF8C8
:103BC000047B704700E100E080B483B000AF03469F
:103BD000FB7197F90730002B0CDBFB7903F01F0218
:103BE000074997F907305B09012000FA02F26033B8
:103BF00041F8232000BF0C37BD465DF8047B7047B9
:103C000000E100E080B483B000AF03463960FB718F
:103C100097F90730002B0ADB3B68DAB20C4997F9B9
:103C200007301201D2B20B4483F800230AE03B684C
:103C3000DAB20849FB7903F00F03043B1201D2B258
:103C40000B441A7600BF0C37BD465DF8047B704705
:103C500000E100E000ED00E080B489B000AFF86062
:103C6000B9607A60FB6803F00703FB61FB69C3F18D
:103C70000703042B28BF0423BB61FB690433062B15
:103C800002D9FB69033B00E000237B614FF0FF3268
:103C9000BB6902FA03F3DA43BB681A407B699A40B6
:103CA0004FF0FF317B6901FA03F3D9437B680B4086
:103CB000134318462437BD465DF8047B7047000067
:103CC00080B582B000AF78607B68013BB3F1807F44
:103CD00001D301230FE00A4A7B68013B53600F21A7
:103CE0004FF0FF30FFF78EFF054B00229A60044B28
:103CF00007221A60002318460837BD4680BD00BF62
:103D000010E000E080B582B000AF78607868FFF71F
:103D1000C9FE00BF0837BD4680BD80B586B000AF84
:103D20000346B9607A60FB73FFF7E0FE78617A685A
:103D3000B9687869FFF790FF024697F90F3011468E
:103D40001846FFF75FFF00BF1837BD4680BD80B53E
:103D500082B000AF0346FB7197F907301846FFF7B2
:103D6000D3FE00BF0837BD4680BD80B582B000AF2E
:103D70000346FB7197F907301846FFF7E3FE00BFD3
:103D80000837BD4680BD80B582B000AF78607868E6
:103D9000FFF796FF034618460837BD4680BD80B53D
:103DA00082B000AF0346FB7197F907301846FFF762
:103DB000EDFE00BF0837BD4680BD80B582B000AFC4
:103DC0000346FB7197F907301846FFF7FDFE00BF69
:103DD0000837BD4680BD000080B584B000AF786074
:103DE0007B68002B01D101238EE07B681B681A469B
:103DF000474B9A420FD87B681B681A46454B1344C1
:103E0000454AA2FB03231B099A007B685A647B681E
:103E1000424A1A640EE07B681B681A46404B134402
:103E20003D4AA2FB03231B099A007B685A647B6806
:103E30003C4A1A647B68022283F825207B681B6851
:103E40001B68FB60FB6823F4FF4323F07003FB60F7
:103E50007B689A687B68DB681A437B681B691A4336
:103E60007B685B691A437B689B691A437B68DB69E3
:103E70001A437B681B6A1343FA681343FB607B6831
:103E80001B68FA681A60786800F074FA7B689B68AF
:103E9000B3F5804F02D17B6800225A607B685A6874
:103EA0007B689B6C02F03F021A607B68DB6C7A686F
:103EB000126D5A607B685B68002B10D07B685B6872
:103EC000042B0CD8786800F093FA7B685B6D0022B5
:103ED0001A607B689B6D7A68D26D5A6008E07B68D7
:103EE00000225A657B6800229A657B680022DA65A9
:103EF0007B680022DA637B68012283F825207B68D7
:103F0000002283F82420002318461037BD4680BDC8
:103F100007040240F8FFFDBFCDCCCCCC000002402E
:103F2000F8FBFDBF0004024080B586B000AFF8602A
:103F3000B9607A603B600023FB75FB6893F824301E
:103F4000012B01D1022366E0FB68012283F82420C3
:103F5000FB6893F82530DBB2012B55D1FB680222B8
:103F600083F82520FB680022DA63FB681B681A6867
:103F7000FB681B6822F001021A603B687A68B96826
:103F8000F86800F0B9F9FB681B6B002B08D0FB68E0
:103F90001B681A68FB681B6842F00E021A600FE08B
:103FA000FB681B681A68FB681B6822F004021A6031
:103FB000FB681B681A68FB681B6842F00A021A60FB
:103FC000FB689B6C1B6803F48033002B07D0FB68F5
:103FD0009B6C1A68FB689B6C42F480721A60FB68E9
:103FE0005B6D002B07D0FB685B6D1A68FB685B6D2F
:103FF00042F480721A60FB681B681A68FB681B68D1
:1040000042F001021A6005E0FB68002283F82420D8
:104010000223FB75FB7D18461837BD4680BD80B472
:1040200083B000AF78607B68002B01D101234FE0A3
:104030007B6893F82530DBB2022B08D07B68042222
:10404000DA637B68002283F82420012340E07B6848
:104050001B681A687B681B6822F00E021A607B6876
:104060009B6C1A687B689B6C22F480721A607B6878
:104070001B681A687B681B6822F001021A607B6863
:104080005B6C03F01C027B681B6C012101FA02F2DD
:104090005A607B68DB6C7A68126D5A607B685B6D76
:1040A000002B0CD07B685B6D1A687B685B6D22F41B
:1040B00080721A607B689B6D7A68D26D5A607B68EB
:1040C000012283F825207B68002283F82420002326
:1040D00018460C37BD465DF8047B704780B584B048
:1040E00000AF78600023FB737B6893F82530DBB268
:1040F000022B05D07B680422DA630123FB7347E0BF
:104100007B681B681A687B681B6822F00E021A60C5
:104110007B681B681A687B681B6822F001021A60C2
:104120007B689B6C1A687B689B6C22F480721A60B7
:104130007B685B6C03F01C027B681B6C012101FA3D
:1041400002F25A607B68DB6C7A68126D5A607B6899
:104150005B6D002B0CD07B685B6D1A687B685B6DB8
:1041600022F480721A607B689B6D7A68D26D5A6007
:104170007B68012283F825207B68002283F82420B5
:104180007B689B6B002B03D07B689B6B78689847A0
:10419000FB7B18461037BD4680BD80B584B000AFAC
:1041A00078607B681B6C1B68FB607B681B681B6806
:1041B000BB607B685B6C03F01C0304229A40FB68C5
:1041C0001340002B26D0BB6803F00403002B21D042
:1041D0007B681B681B6803F02003002B07D17B68FA
:1041E0001B681A687B681B6822F004021A607B68EF
:1041F0005B6C03F01C027B681B6C042101FA02F269
:104200005A607B681B6B002B71D07B681B6B7868D6
:1042100098476CE07B685B6C03F01C0302229A40B9
:10422000FB681340002B2ED0BB6803F00203002B69
:1042300029D07B681B681B6803F02003002B0BD17F
:104240007B681B681A687B681B6822F00A021A6088
:104250007B68012283F825207B685B6C03F01C02DD
:104260007B681B6C022101FA02F25A607B68002213
:1042700083F824207B68DB6A002B38D07B68DB6AFC
:104280007868984733E07B685B6C03F01C03082276
:104290009A40FB681340002B2AD0BB6803F0080348
:1042A000002B25D07B681B681A687B681B6822F08E
:1042B0000E021A607B685B6C03F01C027B681B6C4F
:1042C000012101FA02F25A607B680122DA637B68FD
:1042D000012283F825207B68002283F824207B6854
:1042E0005B6B002B04D07B685B6B7868984700BFE2
:1042F00000BF1037BD4680BD80B485B000AFF86008
:10430000B9607A603B60FB68DB6CFA68126D5A60DA
:10431000FB685B6D002B04D0FB689B6DFA68D26D67
:104320005A60FB685B6C03F01C02FB681B6C01218C
:1043300001FA02F25A60FB681B683A685A60FB682F
:104340009B68102B08D1FB681B687A689A60FB6831
:104350001B68BA68DA6007E0FB681B68BA689A6095
:10436000FB681B687A68DA6000BF1437BD465DF8E9
:10437000047B704780B485B000AF78607B681B68B1
:104380001A46174B9A420AD87B685B6C9B089B00C5
:1043900003F1804303F502337A68936407E07B6896
:1043A0005B6C9B089A000F4B13447A6893647B689C
:1043B0001B68DBB2083B0C4AA2FB03231B09FB6012
:1043C0007B680A4ADA64FB6803F01F0301229A4003
:1043D0007B681A6500BF1437BD465DF8047B7047E3
:1043E000070402401C080240CDCCCCCC800802401F
:1043F00080B485B000AF78607B685B6803F03F03F2
:10440000FB60FA680B4B13449B001A467B685A65A5
:104410007B68094A9A65FB68013B03F003030122AC
:104420009A407B68DA6500BF1437BD465DF8047BAF
:10443000704700BF3F8200104009024080B483B043
:1044400000AF786039607B6893F82530DBB2012BD0
:104450002BD17B6893F82430012B01D1022325E076
:104460007B68012283F824207B689B6C1A68124BBE
:1044700013403A6811683A68D268013AD20411438D
:104480003A68526811433A68127A120411433A6842
:10449000527A520211437A68926C0B4313607B6824
:1044A000002283F82420002300E0012318460C3763
:1044B000BD465DF8047B7047FFFD00E080B487B027
:1044C00000AF7860396000237B614CE13B681A687B
:1044D00001217B6901FA03F31340FB60FB68002BA9
:1044E00000F03E813B685B68012B0BD03B685B684A
:1044F000022B07D03B685B68112B03D03B685B68DD
:10450000122B30D17B689B683B617B695B00032287
:1045100002FA03F3DB433A6913403B613B68DA6814
:104520007B695B0002FA03F33A6913433B617B68E2
:104530003A699A607B685B683B6101227B6902FA99
:1045400003F3DB433A6913403B613B685B681B093B
:1045500003F001027B6902FA03F33A6913433B61FA
:104560007B683A695A607B68DB683B617B695B000A
:10457000032202FA03F3DB433A6913403B613B68D1
:104580009A687B695B0002FA03F33A6913433B6163
:104590007B683A69DA603B685B68022B03D03B6852
:1045A0005B68122B23D17B69DA087B68083253F8E9
:1045B00022303B617B6903F007039B000F2202FA64
:1045C00003F3DB433A6913403B613B681A697B693B
:1045D00003F007039B0002FA03F33A6913433B61BC
:1045E0007B69DA087B680832396943F822107B68F6
:1045F0001B683B617B695B00032202FA03F3DB4328
:104600003A6913403B613B685B6803F003027B69D6
:104610005B0002FA03F33A6913433B617B683A6932
:104620001A603B685B6803F08053002B00F09880B1
:10463000544A7B699B08023352F823303B617B6903
:1046400003F003039B000F2202FA03F3DB433A69F2
:1046500013403B617B68B3F1904F19D07B684A4AA5
:10466000934213D07B68494A93420DD07B68484AF5
:10467000934207D07B68474A934201D1042308E064
:10468000072306E0032304E0022302E0012300E005
:1046900000237A6902F00302920093403A691343BF
:1046A0003B6138497B699B0802333A6941F8232012
:1046B000394BD3F880303B61FB68DB433A691340E8
:1046C0003B613B685B6803F48033002B03D03A699D
:1046D000FB6813433B61304A3B69C2F880302E4B84
:1046E000D3F884303B61FB68DB433A6913403B619C
:1046F0003B685B6803F40033002B03D03A69FB6826
:1047000013433B61244A3B69C2F88430224B1B6847
:104710003B61FB68DB433A6913403B613B685B6884
:1047200003F48013002B03D03A69FB6813433B6109
:10473000194A3B691360184B5B683B61FB68DB43BC
:104740003A6913403B613B685B6803F40013002B3C
:1047500003D03A69FB6813433B610F4A3B695360DE
:104760007B6901337B613B681A687B6922FA03F33A
:10477000002B7FF4ABAE00BF00BF1C37BD465DF819
:10478000047B704700000140000400480008004816
:10479000000C0048001000480008005880B483B0A6
:1047A00000AF78600B467B8013467B707B78002BD4
:1047B00003D07A887B689A6102E07A887B689A6283
:1047C00000BF0C37BD465DF8047B704780B582B0F2
:1047D00000AF0346FB80084BDA68FB881340002BD0
:1047E00006D0054AFB88D360FB881846FCF7C9F859
:1047F00000BF0837BD4680BD0008005880B582B0B4
:1048000000AF0A4BDB687B60084B1A687B68DB43B0
:10481000064913400B60054A7B685360786800F0D6
:1048200007F800BF0837BD4680BD00BF001500581F
:1048300080B483B000AF786000BF0C37BD465DF830
:10484000047B704780B584B000AF78600023FB73B1
:104850007B68002B1ED0134BBB607B6893F838300D
:10486000DBB2002B02D17868FDF72EFCB86800F0AF
:104870005BF8BB681B6843F00112BB681A6078687C
:1048800000F02CF87B6800225A637B68012283F8D1
:10489000382001E00123FB73FB7B18461037BD462F
:1048A00080BD00BF000C005880B485B000AFF86038
:1048B000B9601346FB7100BF1437BD465DF8047B39
:1048C000704780B485B000AFF860B9601346FB71E3
:1048D00000BF1437BD465DF8047B704780B485B0D7
:1048E00000AF78600023FB600FE07A68FB689B00F4
:1048F00013440B4A5A607A68FB6806339B001344E2
:10490000084A5A60FB680133FB60FB68052BECD951
:1049100000BF00BF1437BD465DF8047B704700BF81
:10492000A9480008C348000880B483B000AF78608D
:104930007B6800221A607B684FF03F125A607B68E8
:104940003F229A6000BF0C37BD465DF8047B70477C
:1049500080B400AF054B1B68044A43F480731360B6
:1049600000BFBD465DF8047B704700BF00040058DF
:1049700080B400AF044B1B6803F4C0631846BD4607
:104980005DF8047B704700BF0004005880B400AF9E
:104990004FF0B0431B6803F48013B3F5801F01D1BF
:1049A000012300E000231846BD465DF8047B7047F4
:1049B00080B400AF4FF0B0431B684FF0B04243F4F7
:1049C0008033136000BFBD465DF8047B704780B440
:1049D00000AF4FF0B0431B684FF0B04223F4803378
:1049E000136000BFBD465DF8047B704780B400AF24
:1049F0004FF0B0431B6803F40033B3F5003F01D11F
:104A0000012300E000231846BD465DF8047B704793
:104A100080B400AF4FF0B0431B684FF0B04243F496
:104A20008073136000BFBD465DF8047B704780B49F
:104A300000AF4FF0B0431B684FF0B04223F48073D7
:104A4000136000BFBD465DF8047B704780B400AFC3
:104A50004FF0B0431B6803F48063B3F5806F01D15E
:104A6000012300E000231846BD465DF8047B704733
:104A700080B483B000AF78604FF0B0435B6823F040
:104A8000FE427B681B064FF0B04113434B6000BFF2
:104A90000C37BD465DF8047B704780B400AF4FF023
:104AA000B043D3F898304FF0B04243F00103C2F85E
:104AB000983000BFBD465DF8047B704780B400AFFE
:104AC0004FF0B043D3F898304FF0B04223F00103D9
:104AD000C2F8983000BFBD465DF8047B704780B4D3
:104AE00000AF4FF0B043D3F8983003F00203022B2D
:104AF00001D1012300E000231846BD465DF8047B88
:104B0000704780B400AF4FF0B043D3F890304FF00F
:104B1000B04243F00103C2F8903000BFBD465DF8DB
:104B2000047B704780B400AF4FF0B043D3F89030AF
:104B30004FF0B04223F00103C2F8903000BFBD46F1
:104B40005DF8047B704780B400AF4FF0B043D3F8FA
:104B500090304FF0B04243F00403C2F8903000BFF1
:104B6000BD465DF8047B704780B400AF4FF0B043A2
:104B7000D3F890304FF0B04223F00403C2F89030E5
:104B800000BFBD465DF8047B704780B400AF4FF0B6
:104B9000B043D3F8903003F00203022B01D101237C
:104BA00000E000231846BD465DF8047B704780B4E2
:104BB00000AF4FF0B043D3F894304FF0B04243F021
:104BC0000103C2F8943000BFBD465DF8047B704716
:104BD00080B400AF4FF0B043D3F894304FF0B04200
:104BE00023F00103C2F8943000BFBD465DF8047B9A
:104BF000704780B400AF4FF0B043D3F8943003F067
:104C00000203022B01D1012300E000231846BD4618
:104C10005DF8047B704780B400AF4FF0B043D3F829
:104C200094304FF0B04243F00403C2F8943000BF18
:104C3000BD465DF8047B704780B400AF4FF0B043D1
:104C4000D3F894304FF0B04223F00403C2F894300C
:104C500000BFBD465DF8047B704780B400AF4FF0E5
:104C6000B043D3F8943003F00803082B01D101239B
:104C700000E000231846BD465DF8047B704780B411
:104C800083B000AF78604FF0B043D3F8943023F492
:104C900070627B681B024FF0B0411343C1F894303F
:104CA00000BF0C37BD465DF8047B704780B400AF91
:104CB0004FF0B0431B684FF0B04243F00103136064
:104CC00000BFBD465DF8047B704780B400AF4FF075
:104CD000B0431B684FF0B04223F00103136000BFE4
:104CE000BD465DF8047B704780B400AF4FF0B04321
:104CF0001B6803F00203022B01D1012300E0002313
:104D00001846BD465DF8047B704780B483B000AFA1
:104D100078604FF0B0431B6823F0F0024FF0B041D1
:104D20007B6813430B6000BF0C37BD465DF8047B06
:104D3000704780B483B000AF4FF0B0431B6803F0FE
:104D4000F0037B607B68B02B01D9B0237B607B686C
:104D500018460C37BD465DF8047B704780B483B0BD
:104D600000AF78604FF0B0435B6823F47F427B680C
:104D70001B024FF0B04113434B6000BF0C37BD46E0
:104D80005DF8047B704780B483B000AF78604FF06B
:104D9000B0439B6823F003024FF0B0417B6813439C
:104DA0008B6000BF0C37BD465DF8047B704780B454
:104DB00000AF4FF0B0439B6803F00C031846BD46AC
:104DC0005DF8047B704780B483B000AF78604FF02B
:104DD000B0439B6823F0F0024FF0B0417B6813436F
:104DE0008B6000BF0C37BD465DF8047B704780B414
:104DF00083B000AF78604FF0B043D3F8083123F0B0
:104E0000F0024FF0B0417B681343C1F8083100BF96
:104E10000C37BD465DF8047B704780B483B000AFAB
:104E200078604FF0B043D3F8083123F00F027B686D
:104E30001B094FF0B0411343C1F8083100BF0C37D4
:104E4000BD465DF8047B704780B483B000AF7860E6
:104E50004FF0B0439B6823F4E0624FF0B0417B68B1
:104E600013438B6000BF0C37BD465DF8047B704771
:104E700080B483B000AF78604FF0B0439B6823F4F8
:104E800060524FF0B0417B6813438B6000BF0C371A
:104E9000BD465DF8047B704780B400AF4FF0B0436F
:104EA0009B6803F0F0031846BD465DF8047B70472D
:104EB00080B400AF4FF0B043D3F808311B0103F0CA
:104EC000F0031846BD465DF8047B704780B400AF20
:104ED0004FF0B0439B6803F4E0631846BD465DF8AD
:104EE000047B704780B400AF4FF0B0439B6803F47D
:104EF00060531846BD465DF8047B704780B400AF30
:104F00004FF0B0431B684FF0B04243F08073136022
:104F100000BFBD465DF8047B704780B400AF4FF022
:104F2000B0431B684FF0B04223F08073136000BFA2
:104F3000BD465DF8047B704780B400AF4FF0B043CE
:104F40001B6803F00073B3F1007F01D1012300E07F
:104F500000231846BD465DF8047B704780B400AF5F
:104F60004FF0B043DB681B0A03F07F031846BD46D1
:104F70005DF8047B704780B400AF4FF0B043DB684E
:104F800003F060431846BD465DF8047B704780B46B
:104F900000AF4FF0B043DB6803F070031846BD4626
:104FA0005DF8047B704780B400AF4FF0B043DB681E
:104FB00003F003031846BD465DF8047B704780B4D8
:104FC00000AF4FF0B0439B6803F48033B3F5803FEC
:104FD00001D1012300E000231846BD465DF8047BA3
:104FE000704780B400AF4FF0B043D3F8083103F4FA
:104FF0000033B3F5003F01D1012300E00023184640
:10500000BD465DF8047B704780B400AF4FF0B043FD
:10501000D3F8083103F48033B3F5803F01D1012385
:1050200000E000231846BD465DF8047B704780B45D
:1050300000AF4FF0B0439B6803F40033B3F5003F7B
:1050400001D1012300E000231846BD465DF8047B32
:10505000704780B400AF4FF0B0439B6803F48023E7
:10506000B3F5802F01D1012300E000231846BD468F
:105070005DF8047B7047000090B58DB000AF78609C
:105080007B68002B01D101237EE37B681B6803F062
:105090002003002B00F09280FFF789FEF862FFF7F3
:1050A00082FFB862FB6A002B05D0FB6A0C2B4CD147
:1050B000BB6A012B49D1FFF717FE0346002B05D031
:1050C0007B68DB69002B01D101235DE37B685C6AAF
:1050D000FFF72FFE03469C4214D97B685B6A184693
:1050E00000F042FD0346002B01D001234CE37B6816
:1050F0005B6A1846FFF709FE7B681B6A1846FFF7D4
:105100002DFE13E07B685B6A1846FFF7FEFD7B68A7
:105110001B6A1846FFF722FE7B685B6A184600F0A0
:1051200023FD0346002B01D001232DE300F0DCFC1E
:105130000346B34A1360B34B1B681846FEF734FCB2
:105140000346002B39D001231EE37B68DB69002B6B
:105150001ED0FFF7ABFDFEF775FC786208E0FEF7A6
:1051600071FC02467B6AD31A022B01D903230BE39D
:10517000FFF7BAFD0346002BF1D07B685B6A184647
:10518000FFF7C3FD7B681B6A1846FFF7E7FD15E0D4
:10519000FFF79BFDFEF756FC786208E0FEF752FC35
:1051A00002467B6AD31A022B01D90323ECE2FFF7F4
:1051B0009BFD0346002BF1D100E000BF7B681B681C
:1051C00003F00103002B4ED0FFF7F1FD3862FFF72B
:1051D000EAFEF8613B6A082B05D03B6A0C2B0DD127
:1051E000FB69032B0AD1FFF701FC0346002B39D0E2
:1051F0007B685B68002B35D10123C5E27B685B6867
:10520000B3F5803F02D1FFF7D3FB01E0FFF7DFFBEF
:105210007B685B68002B12D0FEF714FC786208E014
:10522000FEF710FC02467B6AD31A642B01D90323D4
:10523000AAE2FFF7DBFB0346002BF1D013E0FEF7F9
:1052400001FC786208E0FEF7FDFB02467B6AD31A98
:10525000642B01D9032397E2FFF7C8FB0346002B19
:10526000F1D100E000BF7B681B6803F00203002B54
:1052700051D0FFF79CFDB861FFF795FE7861BB69DF
:10528000042B05D0BB690C2B13D17B69022B10D1E9
:10529000FFF7DCFB0346002B05D07B68DB68002BA7
:1052A00001D1012370E27B681B691846FFF7E0FB20
:1052B00031E07B68DB68002B19D0FFF7A9FBFEF714
:1052C000C1FB786208E0FEF7BDFB02467B6AD31A99
:1052D000022B01D9032357E2FFF7B8FB0346002B4B
:1052E000F1D07B681B691846FFF7C2FB13E0FFF79C
:1052F0009EFBFEF7A7FB786208E0FEF7A3FB0246E1
:105300007B6AD31A022B01D903233DE2FFF79EFBF0
:105310000346002BF1D17B681B6803F00803002BC8
:1053200006D17B681B6803F01003002B00F0A380FC
:105330007B685B69002B76D07B681B6803F01003E9
:10534000002B46D0FFF755FC0346002B13D1FFF787
:105350002EFCFEF777FB786208E0FEF773FB02464F
:105360007B6AD31A022B01D903230DE2FFF741FC1C
:105370000346002BF1D0FFF74EFCFEF763FB78628B
:1053800008E0FEF75FFB02467B6AD31A032B01D9C4
:105390000323F9E1FFF761FC0346002BF1D07B68A2
:1053A0009B691846FFF76BFCFFF712FCFEF74AFB00
:1053B000786208E0FEF746FB02467B6AD31A022BAE
:1053C00001D90323E0E1FFF714FC0346002BF1D1E0
:1053D00051E0FFF7ECFBFEF735FB786208E0FEF7E3
:1053E00031FB02467B6AD31A022B01D90323CBE19E
:1053F000FFF7FFFB0346002BF1D0FFF71DFC0CE08D
:105400003400002038000020FEF71CFB02467B6AB7
:10541000D31A032B01D90323B6E1FFF71EFC034681
:10542000002BF1D127E0FFF707FCFEF70BFB7862BA
:1054300008E0FEF707FB02467B6AD31A032B01D96B
:105440000323A1E1FFF709FC0346002BF1D1FFF78D
:10545000BFFBFEF7F7FA786208E0FEF7F3FA0246C0
:105460007B6AD31A022B01D903238DE1FFF7C1FB1D
:105470000346002BF1D17B681B6803F00403002B6B
:105480005BD0B54B1B6803F48073002B14D1FFF77E
:105490005FFAFEF7D7FA786208E0FEF7D3FA024621
:1054A0007B6AD31A022B01D903236DE1AA4B1B6837
:1054B00003F48073002BF0D07B689B68012B02D132
:1054C000FFF71FFB0CE07B689B68052B04D1FFF7FF
:1054D0003AFBFFF716FB03E0FFF724FBFFF744FB63
:1054E0007B689B68002B14D0FEF7ACFA78620AE068
:1054F000FEF7A8FA02467B6AD31A41F28832934239
:1055000001D9032340E1FFF740FB0346002BEFD016
:1055100013E0FEF797FA78620AE0FEF793FA024684
:105520007B6AD31A41F28832934201D903232BE1DB
:10553000FFF72BFB0346002BEFD17B681B6803F0C2
:105540004003002B2CD07B689B6A002B14D0FFF704
:10555000A4FAFEF777FA786208E0FEF773FA0246DB
:105560007B6AD31A022B01D903230DE1FFF7B7FAA7
:105570000346002BF1D013E0FFF7A0FAFEF762FA22
:10558000786208E0FEF75EFA02467B6AD31A022BC5
:1055900001D90323F8E0FFF7A2FA0346002BF1D16B
:1055A0007B68DB6A002B00F0EE80FFF700FC3861BF
:1055B0004FF0B043DB68FB607B68DB6A022B40F096
:1055C000AF80FB6803F003027B681B6B9A4223D118
:1055D000FB6803F070027B685B6B9A421CD1FB682E
:1055E0001B0A03F07F027B689B6B9A4214D1FB6815
:1055F00003F478127B68DB6B9A420DD1FB6803F0F1
:1056000060627B681B6C9A4206D1FB6803F06042C3
:105610007B685B6C9A425DD03B690C2B58D04FF095
:10562000B0431B6803F08063002B01D00123ABE083
:10563000FFF773FCFEF706FA786208E0FEF702FA5D
:1056400002467B6AD31A022B01D903239CE04FF058
:10565000B0431B6803F00073002BEFD14FF0B04351
:10566000DA683E4B13407A68116B7A68526B1143CB
:105670007A68926B120211437A68D26B11437A688E
:10568000126C11437A68526C0A434FF0B0411343D5
:10569000CB60FFF733FC4FF0B043DB684FF0B04214
:1056A00043F08053D360FEF7CDF9786208E0FEF74F
:1056B000C9F902467B6AD31A022B01D9032363E09E
:1056C0004FF0B0431B6803F00073002BEFD05AE09B
:1056D000012359E04FF0B0431B6803F00073002B27
:1056E00051D1FFF70BFC4FF0B043DB684FF0B042F5
:1056F00043F08053D360FEF7A5F9786208E0FEF727
:10570000A1F902467B6AD31A022B01D903233BE09D
:105710004FF0B0431B6803F00073002BEFD032E072
:105720003B690C2B2DD0FFF7F8FB4FF0B043DB6843
:105730004FF0B04223F00303D3604FF0B043DB6877
:105740004FF0B04223F0885323F48033D360FEF748
:1057500079F978620DE000BF000400588C80C11117
:10576000FEF770F902467B6AD31A022B01D9032394
:105770000AE04FF0B0431B6803F00073002BEFD139
:1057800001E0012300E0002318463437BD4690BDF8
:1057900080B584B000AF786039607B68002B01D1A0
:1057A00001232DE1984B1B6803F007033A689A42E6
:1057B0001BD9954B1B6823F0070293493B681343A1
:1057C0000B60FEF73FF9F86008E0FEF73BF9024690
:1057D000FB68D31A022B01D9032311E18A4B1B6802
:1057E00003F007033A689A42EFD17B681B6803F025
:1057F0000203002B16D07B689B681846FFF7E3FA7C
:10580000FEF720F9F86008E0FEF71CF90246FB6895
:10581000D31A022B01D90323F2E0FFF7D0FB034692
:10582000002BF1D07B681B6803F02003002B16D0FF
:105830007B685B691846FFF7DAFAFEF703F9F86050
:1058400008E0FEF7FFF80246FB68D31A022B01D9E5
:105850000323D5E0FFF7C5FB0346002BF1D07B689F
:105860001B6803F04003002B16D07B689B69184629
:10587000FFF7D3FAFEF7E6F8F86008E0FEF7E2F883
:105880000246FB68D31A022B01D90323B8E0FFF7C5
:10589000BBFB0346002BF1D07B681B6803F00403BD
:1058A000002B16D07B68DB681846FFF7CDFAFEF7B1
:1058B000C9F8F86008E0FEF7C5F80246FB68D31A9D
:1058C000022B01D903239BE0FFF7B1FB0346002B1A
:1058D000F1D07B681B6803F00803002B17D07B68AE
:1058E0001B69DB001846FFF7C3FAFEF7ABF8F86058
:1058F00008E0FEF7A7F80246FB68D31A022B01D98D
:1059000003237DE0FFF7A5FB0346002BF1D07B6866
:105910001B6803F00103002B43D07B685B68022BFC
:1059200006D1FFF763F80346002B1ED1012367E081
:105930007B685B68032B06D1FFF7FEFA0346002B5A
:1059400013D101235CE07B685B68002B06D1FFF775
:10595000CBF90346002B08D1012351E0FFF776F87D
:105960000346002B01D101234AE07B685B6818469F
:10597000FFF709FAFEF766F8F8600AE0FEF762F84A
:105980000246FB68D31A41F28832934201D90323BD
:1059900036E0FFF70CFA02467B685B689B009A4290
:1059A000ECD1194B1B6803F007033A689A421BD2EB
:1059B000154B1B6823F0070213493B6813430B6028
:1059C000FEF740F8F86008E0FEF73CF80246FB6896
:1059D000D31A022B01D9032312E00B4B1B6803F0EF
:1059E00007033A689A42EFD100F07EF80346074A6F
:1059F0001360FEF733F803461846FDF7D5FF03465C
:105A000018461037BD4680BD0040005834000020C5
:105A100090B585B000AFFFF7CAF978607B68002BBE
:105A20000AD1FFF786F903461B0903F00F032B4A3F
:105A300052F82330FB604BE07B68042B02D1284BEB
:105A4000FB6045E07B68082B0AD1FEF79FFF034609
:105A5000012B02D1224BFB603AE0224BFB6037E086
:105A6000FFF7A1FA38603B68022B03D03B68032B99
:105A700003D00DE01A4BBB6015E0FEF787FF03462D
:105A8000012B02D1164BBB600DE0164BBB600AE048
:105A9000FFF74FF903461B0903F00F030F4A52F8B3
:105AA0002330BB6000BFFFF759FA0246BB6803FB17
:105AB00002F4FFF76CFA03461B090133B4FBF3F45D
:105AC000FFF759FA03465B0F0133B4FBF3F3FB60B6
:105AD000FB6818461437BD4690BD00BFC4C200081D
